{
	"hackathon/TourismRewardPool.sol": {
		"TourismRewardPool": {
			"abi": [
				{
					"inputs": [
						{
							"internalType": "address",
							"name": "_tourismToken",
							"type": "address"
						},
						{
							"internalType": "address",
							"name": "initialOwner",
							"type": "address"
						}
					],
					"stateMutability": "nonpayable",
					"type": "constructor"
				},
				{
					"inputs": [
						{
							"internalType": "address",
							"name": "owner",
							"type": "address"
						}
					],
					"name": "OwnableInvalidOwner",
					"type": "error"
				},
				{
					"inputs": [
						{
							"internalType": "address",
							"name": "account",
							"type": "address"
						}
					],
					"name": "OwnableUnauthorizedAccount",
					"type": "error"
				},
				{
					"anonymous": false,
					"inputs": [
						{
							"indexed": true,
							"internalType": "address",
							"name": "previousOwner",
							"type": "address"
						},
						{
							"indexed": true,
							"internalType": "address",
							"name": "newOwner",
							"type": "address"
						}
					],
					"name": "OwnershipTransferred",
					"type": "event"
				},
				{
					"anonymous": false,
					"inputs": [
						{
							"indexed": true,
							"internalType": "address",
							"name": "funder",
							"type": "address"
						},
						{
							"indexed": false,
							"internalType": "uint256",
							"name": "amount",
							"type": "uint256"
						}
					],
					"name": "PoolFunded",
					"type": "event"
				},
				{
					"anonymous": false,
					"inputs": [
						{
							"indexed": false,
							"internalType": "uint256",
							"name": "totalDistributed",
							"type": "uint256"
						}
					],
					"name": "RewardsDistributed",
					"type": "event"
				},
				{
					"anonymous": false,
					"inputs": [
						{
							"indexed": true,
							"internalType": "address",
							"name": "user",
							"type": "address"
						},
						{
							"indexed": false,
							"internalType": "uint256",
							"name": "totalUserVisits",
							"type": "uint256"
						}
					],
					"name": "VisitRegistered",
					"type": "event"
				},
				{
					"inputs": [],
					"name": "distributeRewards",
					"outputs": [],
					"stateMutability": "nonpayable",
					"type": "function"
				},
				{
					"inputs": [
						{
							"internalType": "uint256",
							"name": "amount",
							"type": "uint256"
						}
					],
					"name": "fundPool",
					"outputs": [],
					"stateMutability": "nonpayable",
					"type": "function"
				},
				{
					"inputs": [],
					"name": "getParticipants",
					"outputs": [
						{
							"internalType": "address[]",
							"name": "",
							"type": "address[]"
						}
					],
					"stateMutability": "view",
					"type": "function"
				},
				{
					"inputs": [
						{
							"internalType": "address",
							"name": "",
							"type": "address"
						}
					],
					"name": "isRegisteredUser",
					"outputs": [
						{
							"internalType": "bool",
							"name": "",
							"type": "bool"
						}
					],
					"stateMutability": "view",
					"type": "function"
				},
				{
					"inputs": [],
					"name": "lastDistribution",
					"outputs": [
						{
							"internalType": "uint256",
							"name": "",
							"type": "uint256"
						}
					],
					"stateMutability": "view",
					"type": "function"
				},
				{
					"inputs": [
						{
							"internalType": "address",
							"name": "",
							"type": "address"
						}
					],
					"name": "monthlyVisits",
					"outputs": [
						{
							"internalType": "uint256",
							"name": "",
							"type": "uint256"
						}
					],
					"stateMutability": "view",
					"type": "function"
				},
				{
					"inputs": [],
					"name": "owner",
					"outputs": [
						{
							"internalType": "address",
							"name": "",
							"type": "address"
						}
					],
					"stateMutability": "view",
					"type": "function"
				},
				{
					"inputs": [
						{
							"internalType": "uint256",
							"name": "",
							"type": "uint256"
						}
					],
					"name": "participants",
					"outputs": [
						{
							"internalType": "address",
							"name": "",
							"type": "address"
						}
					],
					"stateMutability": "view",
					"type": "function"
				},
				{
					"inputs": [
						{
							"internalType": "address",
							"name": "user",
							"type": "address"
						}
					],
					"name": "registerVisit",
					"outputs": [],
					"stateMutability": "nonpayable",
					"type": "function"
				},
				{
					"inputs": [],
					"name": "renounceOwnership",
					"outputs": [],
					"stateMutability": "nonpayable",
					"type": "function"
				},
				{
					"inputs": [],
					"name": "totalVisits",
					"outputs": [
						{
							"internalType": "uint256",
							"name": "",
							"type": "uint256"
						}
					],
					"stateMutability": "view",
					"type": "function"
				},
				{
					"inputs": [],
					"name": "tourismToken",
					"outputs": [
						{
							"internalType": "contract IERC20",
							"name": "",
							"type": "address"
						}
					],
					"stateMutability": "view",
					"type": "function"
				},
				{
					"inputs": [
						{
							"internalType": "address",
							"name": "newOwner",
							"type": "address"
						}
					],
					"name": "transferOwnership",
					"outputs": [],
					"stateMutability": "nonpayable",
					"type": "function"
				}
			],
			"devdoc": {
				"errors": {
					"OwnableInvalidOwner(address)": [
						{
							"details": "The owner is not a valid owner account. (eg. `address(0)`)"
						}
					],
					"OwnableUnauthorizedAccount(address)": [
						{
							"details": "The caller account is not authorized to perform an operation."
						}
					]
				},
				"kind": "dev",
				"methods": {
					"owner()": {
						"details": "Returns the address of the current owner."
					},
					"renounceOwnership()": {
						"details": "Leaves the contract without owner. It will not be possible to call `onlyOwner` functions. Can only be called by the current owner. NOTE: Renouncing ownership will leave the contract without an owner, thereby disabling any functionality that is only available to the owner."
					},
					"transferOwnership(address)": {
						"details": "Transfers ownership of the contract to a new account (`newOwner`). Can only be called by the current owner."
					}
				},
				"version": 1
			},
			"evm": {
				"assembly": "    /* \"hackathon/TourismRewardPool.sol\":175:2404  contract TourismRewardPool is Ownable {... */\n  mstore(0x40, 0x80)\n    /* \"hackathon/TourismRewardPool.sol\":671:842  constructor(address _tourismToken, address initialOwner) Ownable(initialOwner) {... */\n  callvalue\n  dup1\n  iszero\n  tag_1\n  jumpi\n  revert(0x00, 0x00)\ntag_1:\n  pop\n  mload(0x40)\n  sub(codesize, bytecodeSize)\n  dup1\n  bytecodeSize\n  dup4\n  codecopy\n  dup2\n  dup2\n  add\n  0x40\n  mstore\n  dup2\n  add\n  swap1\n  tag_2\n  swap2\n  swap1\n  tag_3\n  jump\t// in\ntag_2:\n    /* \"hackathon/TourismRewardPool.sol\":736:748  initialOwner */\n  dup1\n    /* \"@openzeppelin/contracts/access/Ownable.sol\":1297:1298  0 */\n  0x00\n    /* \"@openzeppelin/contracts/access/Ownable.sol\":1273:1299  initialOwner == address(0) */\n  0xffffffffffffffffffffffffffffffffffffffff\n  and\n    /* \"@openzeppelin/contracts/access/Ownable.sol\":1273:1285  initialOwner */\n  dup2\n    /* \"@openzeppelin/contracts/access/Ownable.sol\":1273:1299  initialOwner == address(0) */\n  0xffffffffffffffffffffffffffffffffffffffff\n  and\n  sub\n    /* \"@openzeppelin/contracts/access/Ownable.sol\":1269:1364  if (initialOwner == address(0)) {... */\n  tag_7\n  jumpi\n    /* \"@openzeppelin/contracts/access/Ownable.sol\":1350:1351  0 */\n  0x00\n    /* \"@openzeppelin/contracts/access/Ownable.sol\":1322:1353  OwnableInvalidOwner(address(0)) */\n  mload(0x40)\n  0x1e4fbdf700000000000000000000000000000000000000000000000000000000\n  dup2\n  mstore\n  0x04\n  add\n  tag_8\n  swap2\n  swap1\n  tag_9\n  jump\t// in\ntag_8:\n  mload(0x40)\n  dup1\n  swap2\n  sub\n  swap1\n  revert\n    /* \"@openzeppelin/contracts/access/Ownable.sol\":1269:1364  if (initialOwner == address(0)) {... */\ntag_7:\n    /* \"@openzeppelin/contracts/access/Ownable.sol\":1373:1405  _transferOwnership(initialOwner) */\n  tag_10\n    /* \"@openzeppelin/contracts/access/Ownable.sol\":1392:1404  initialOwner */\n  dup2\n    /* \"@openzeppelin/contracts/access/Ownable.sol\":1373:1391  _transferOwnership */\n  shl(0x20, tag_11)\n    /* \"@openzeppelin/contracts/access/Ownable.sol\":1373:1405  _transferOwnership(initialOwner) */\n  0x20\n  shr\n  jump\t// in\ntag_10:\n    /* \"@openzeppelin/contracts/access/Ownable.sol\":1225:1412  constructor(address initialOwner) {... */\n  pop\n    /* \"hackathon/TourismRewardPool.sol\":779:792  _tourismToken */\n  dup2\n    /* \"hackathon/TourismRewardPool.sol\":757:769  tourismToken */\n  0x01\n  0x00\n    /* \"hackathon/TourismRewardPool.sol\":757:793  tourismToken = IERC20(_tourismToken) */\n  0x0100\n  exp\n  dup2\n  sload\n  dup2\n  0xffffffffffffffffffffffffffffffffffffffff\n  mul\n  not\n  and\n  swap1\n  dup4\n  0xffffffffffffffffffffffffffffffffffffffff\n  and\n  mul\n  or\n  swap1\n  sstore\n  pop\n    /* \"hackathon/TourismRewardPool.sol\":819:834  block.timestamp */\n  timestamp\n    /* \"hackathon/TourismRewardPool.sol\":800:816  lastDistribution */\n  0x02\n    /* \"hackathon/TourismRewardPool.sol\":800:834  lastDistribution = block.timestamp */\n  dup2\n  swap1\n  sstore\n  pop\n    /* \"hackathon/TourismRewardPool.sol\":671:842  constructor(address _tourismToken, address initialOwner) Ownable(initialOwner) {... */\n  pop\n  pop\n    /* \"hackathon/TourismRewardPool.sol\":175:2404  contract TourismRewardPool is Ownable {... */\n  jump(tag_13)\n    /* \"@openzeppelin/contracts/access/Ownable.sol\":2912:3099  function _transferOwnership(address newOwner) internal virtual {... */\ntag_11:\n    /* \"@openzeppelin/contracts/access/Ownable.sol\":2985:3001  address oldOwner */\n  0x00\n    /* \"@openzeppelin/contracts/access/Ownable.sol\":3004:3010  _owner */\n  0x00\n  0x00\n  swap1\n  sload\n  swap1\n  0x0100\n  exp\n  swap1\n  div\n  0xffffffffffffffffffffffffffffffffffffffff\n  and\n    /* \"@openzeppelin/contracts/access/Ownable.sol\":2985:3010  address oldOwner = _owner */\n  swap1\n  pop\n    /* \"@openzeppelin/contracts/access/Ownable.sol\":3029:3037  newOwner */\n  dup2\n    /* \"@openzeppelin/contracts/access/Ownable.sol\":3020:3026  _owner */\n  0x00\n  0x00\n    /* \"@openzeppelin/contracts/access/Ownable.sol\":3020:3037  _owner = newOwner */\n  0x0100\n  exp\n  dup2\n  sload\n  dup2\n  0xffffffffffffffffffffffffffffffffffffffff\n  mul\n  not\n  and\n  swap1\n  dup4\n  0xffffffffffffffffffffffffffffffffffffffff\n  and\n  mul\n  or\n  swap1\n  sstore\n  pop\n    /* \"@openzeppelin/contracts/access/Ownable.sol\":3083:3091  newOwner */\n  dup2\n    /* \"@openzeppelin/contracts/access/Ownable.sol\":3052:3092  OwnershipTransferred(oldOwner, newOwner) */\n  0xffffffffffffffffffffffffffffffffffffffff\n  and\n    /* \"@openzeppelin/contracts/access/Ownable.sol\":3073:3081  oldOwner */\n  dup2\n    /* \"@openzeppelin/contracts/access/Ownable.sol\":3052:3092  OwnershipTransferred(oldOwner, newOwner) */\n  0xffffffffffffffffffffffffffffffffffffffff\n  and\n  0x8be0079c531659141344cd1fd0a4f28419497f9722a3daafe3b4186f6b6457e0\n  mload(0x40)\n  mload(0x40)\n  dup1\n  swap2\n  sub\n  swap1\n  log3\n    /* \"@openzeppelin/contracts/access/Ownable.sol\":2975:3099  {... */\n  pop\n    /* \"@openzeppelin/contracts/access/Ownable.sol\":2912:3099  function _transferOwnership(address newOwner) internal virtual {... */\n  pop\n  jump\t// out\n    /* \"#utility.yul\":88:205   */\ntag_16:\n    /* \"#utility.yul\":197:198   */\n  0x00\n    /* \"#utility.yul\":194:195   */\n  0x00\n    /* \"#utility.yul\":187:199   */\n  revert\n    /* \"#utility.yul\":334:460   */\ntag_18:\n    /* \"#utility.yul\":371:378   */\n  0x00\n    /* \"#utility.yul\":411:453   */\n  0xffffffffffffffffffffffffffffffffffffffff\n    /* \"#utility.yul\":404:409   */\n  dup3\n    /* \"#utility.yul\":400:454   */\n  and\n    /* \"#utility.yul\":389:454   */\n  swap1\n  pop\n    /* \"#utility.yul\":334:460   */\n  swap2\n  swap1\n  pop\n  jump\t// out\n    /* \"#utility.yul\":466:562   */\ntag_19:\n    /* \"#utility.yul\":503:510   */\n  0x00\n    /* \"#utility.yul\":532:556   */\n  tag_29\n    /* \"#utility.yul\":550:555   */\n  dup3\n    /* \"#utility.yul\":532:556   */\n  tag_18\n  jump\t// in\ntag_29:\n    /* \"#utility.yul\":521:556   */\n  swap1\n  pop\n    /* \"#utility.yul\":466:562   */\n  swap2\n  swap1\n  pop\n  jump\t// out\n    /* \"#utility.yul\":568:690   */\ntag_20:\n    /* \"#utility.yul\":641:665   */\n  tag_31\n    /* \"#utility.yul\":659:664   */\n  dup2\n    /* \"#utility.yul\":641:665   */\n  tag_19\n  jump\t// in\ntag_31:\n    /* \"#utility.yul\":634:639   */\n  dup2\n    /* \"#utility.yul\":631:666   */\n  eq\n    /* \"#utility.yul\":621:684   */\n  tag_32\n  jumpi\n    /* \"#utility.yul\":680:681   */\n  0x00\n    /* \"#utility.yul\":677:678   */\n  0x00\n    /* \"#utility.yul\":670:682   */\n  revert\n    /* \"#utility.yul\":621:684   */\ntag_32:\n    /* \"#utility.yul\":568:690   */\n  pop\n  jump\t// out\n    /* \"#utility.yul\":696:839   */\ntag_21:\n    /* \"#utility.yul\":753:758   */\n  0x00\n    /* \"#utility.yul\":784:790   */\n  dup2\n    /* \"#utility.yul\":778:791   */\n  mload\n    /* \"#utility.yul\":769:791   */\n  swap1\n  pop\n    /* \"#utility.yul\":800:833   */\n  tag_34\n    /* \"#utility.yul\":827:832   */\n  dup2\n    /* \"#utility.yul\":800:833   */\n  tag_20\n  jump\t// in\ntag_34:\n    /* \"#utility.yul\":696:839   */\n  swap3\n  swap2\n  pop\n  pop\n  jump\t// out\n    /* \"#utility.yul\":845:1352   */\ntag_3:\n    /* \"#utility.yul\":924:930   */\n  0x00\n    /* \"#utility.yul\":932:938   */\n  0x00\n    /* \"#utility.yul\":981:983   */\n  0x40\n    /* \"#utility.yul\":969:978   */\n  dup4\n    /* \"#utility.yul\":960:967   */\n  dup6\n    /* \"#utility.yul\":956:979   */\n  sub\n    /* \"#utility.yul\":952:984   */\n  slt\n    /* \"#utility.yul\":949:1068   */\n  iszero\n  tag_36\n  jumpi\n    /* \"#utility.yul\":987:1066   */\n  tag_37\n  tag_16\n  jump\t// in\ntag_37:\n    /* \"#utility.yul\":949:1068   */\ntag_36:\n    /* \"#utility.yul\":1107:1108   */\n  0x00\n    /* \"#utility.yul\":1132:1196   */\n  tag_38\n    /* \"#utility.yul\":1188:1195   */\n  dup6\n    /* \"#utility.yul\":1179:1185   */\n  dup3\n    /* \"#utility.yul\":1168:1177   */\n  dup7\n    /* \"#utility.yul\":1164:1186   */\n  add\n    /* \"#utility.yul\":1132:1196   */\n  tag_21\n  jump\t// in\ntag_38:\n    /* \"#utility.yul\":1122:1196   */\n  swap3\n  pop\n    /* \"#utility.yul\":1078:1206   */\n  pop\n    /* \"#utility.yul\":1245:1247   */\n  0x20\n    /* \"#utility.yul\":1271:1335   */\n  tag_39\n    /* \"#utility.yul\":1327:1334   */\n  dup6\n    /* \"#utility.yul\":1318:1324   */\n  dup3\n    /* \"#utility.yul\":1307:1316   */\n  dup7\n    /* \"#utility.yul\":1303:1325   */\n  add\n    /* \"#utility.yul\":1271:1335   */\n  tag_21\n  jump\t// in\ntag_39:\n    /* \"#utility.yul\":1261:1335   */\n  swap2\n  pop\n    /* \"#utility.yul\":1216:1345   */\n  pop\n    /* \"#utility.yul\":845:1352   */\n  swap3\n  pop\n  swap3\n  swap1\n  pop\n  jump\t// out\n    /* \"#utility.yul\":1358:1476   */\ntag_22:\n    /* \"#utility.yul\":1445:1469   */\n  tag_41\n    /* \"#utility.yul\":1463:1468   */\n  dup2\n    /* \"#utility.yul\":1445:1469   */\n  tag_19\n  jump\t// in\ntag_41:\n    /* \"#utility.yul\":1440:1443   */\n  dup3\n    /* \"#utility.yul\":1433:1470   */\n  mstore\n    /* \"#utility.yul\":1358:1476   */\n  pop\n  pop\n  jump\t// out\n    /* \"#utility.yul\":1482:1704   */\ntag_9:\n    /* \"#utility.yul\":1575:1579   */\n  0x00\n    /* \"#utility.yul\":1613:1615   */\n  0x20\n    /* \"#utility.yul\":1602:1611   */\n  dup3\n    /* \"#utility.yul\":1598:1616   */\n  add\n    /* \"#utility.yul\":1590:1616   */\n  swap1\n  pop\n    /* \"#utility.yul\":1626:1697   */\n  tag_43\n    /* \"#utility.yul\":1694:1695   */\n  0x00\n    /* \"#utility.yul\":1683:1692   */\n  dup4\n    /* \"#utility.yul\":1679:1696   */\n  add\n    /* \"#utility.yul\":1670:1676   */\n  dup5\n    /* \"#utility.yul\":1626:1697   */\n  tag_22\n  jump\t// in\ntag_43:\n    /* \"#utility.yul\":1482:1704   */\n  swap3\n  swap2\n  pop\n  pop\n  jump\t// out\n    /* \"hackathon/TourismRewardPool.sol\":175:2404  contract TourismRewardPool is Ownable {... */\ntag_13:\n  dataSize(sub_0)\n  dup1\n  dataOffset(sub_0)\n  0x00\n  codecopy\n  0x00\n  return\nstop\n\nsub_0: assembly {\n        /* \"hackathon/TourismRewardPool.sol\":175:2404  contract TourismRewardPool is Ownable {... */\n      mstore(0x40, 0x80)\n      callvalue\n      dup1\n      iszero\n      tag_1\n      jumpi\n      revert(0x00, 0x00)\n    tag_1:\n      pop\n      jumpi(tag_2, lt(calldatasize, 0x04))\n      shr(0xe0, calldataload(0x00))\n      dup1\n      0x8da5cb5b\n      gt\n      tag_16\n      jumpi\n      dup1\n      0xc91538a9\n      gt\n      tag_17\n      jumpi\n      dup1\n      0xc91538a9\n      eq\n      tag_12\n      jumpi\n      dup1\n      0xcc2bc153\n      eq\n      tag_13\n      jumpi\n      dup1\n      0xda3a5f72\n      eq\n      tag_14\n      jumpi\n      dup1\n      0xf2fde38b\n      eq\n      tag_15\n      jumpi\n      jump(tag_2)\n    tag_17:\n      dup1\n      0x8da5cb5b\n      eq\n      tag_9\n      jumpi\n      dup1\n      0xa717639c\n      eq\n      tag_10\n      jumpi\n      dup1\n      0xb43b0f4f\n      eq\n      tag_11\n      jumpi\n      jump(tag_2)\n    tag_16:\n      dup1\n      0x1f5bdf5d\n      eq\n      tag_3\n      jumpi\n      dup1\n      0x35c1d349\n      eq\n      tag_4\n      jumpi\n      dup1\n      0x55f7a735\n      eq\n      tag_5\n      jumpi\n      dup1\n      0x5aa68ac0\n      eq\n      tag_6\n      jumpi\n      dup1\n      0x6f4a2cd0\n      eq\n      tag_7\n      jumpi\n      dup1\n      0x715018a6\n      eq\n      tag_8\n      jumpi\n    tag_2:\n      revert(0x00, 0x00)\n        /* \"hackathon/TourismRewardPool.sol\":381:429  mapping(address => bool) public isRegisteredUser */\n    tag_3:\n      tag_18\n      0x04\n      dup1\n      calldatasize\n      sub\n      dup2\n      add\n      swap1\n      tag_19\n      swap2\n      swap1\n      tag_20\n      jump\t// in\n    tag_19:\n      tag_21\n      jump\t// in\n    tag_18:\n      mload(0x40)\n      tag_22\n      swap2\n      swap1\n      tag_23\n      jump\t// in\n    tag_22:\n      mload(0x40)\n      dup1\n      swap2\n      sub\n      swap1\n      return\n        /* \"hackathon/TourismRewardPool.sol\":436:465  address[] public participants */\n    tag_4:\n      tag_24\n      0x04\n      dup1\n      calldatasize\n      sub\n      dup2\n      add\n      swap1\n      tag_25\n      swap2\n      swap1\n      tag_26\n      jump\t// in\n    tag_25:\n      tag_27\n      jump\t// in\n    tag_24:\n      mload(0x40)\n      tag_28\n      swap2\n      swap1\n      tag_29\n      jump\t// in\n    tag_28:\n      mload(0x40)\n      dup1\n      swap2\n      sub\n      swap1\n      return\n        /* \"hackathon/TourismRewardPool.sol\":291:317  uint256 public totalVisits */\n    tag_5:\n      tag_30\n      tag_31\n      jump\t// in\n    tag_30:\n      mload(0x40)\n      tag_32\n      swap2\n      swap1\n      tag_33\n      jump\t// in\n    tag_32:\n      mload(0x40)\n      dup1\n      swap2\n      sub\n      swap1\n      return\n        /* \"hackathon/TourismRewardPool.sol\":2295:2401  function getParticipants() external view returns (address[] memory) {... */\n    tag_6:\n      tag_34\n      tag_35\n      jump\t// in\n    tag_34:\n      mload(0x40)\n      tag_36\n      swap2\n      swap1\n      tag_37\n      jump\t// in\n    tag_36:\n      mload(0x40)\n      dup1\n      swap2\n      sub\n      swap1\n      return\n        /* \"hackathon/TourismRewardPool.sol\":1401:2287  function distributeRewards() external onlyOwner {... */\n    tag_7:\n      tag_38\n      tag_39\n      jump\t// in\n    tag_38:\n      stop\n        /* \"@openzeppelin/contracts/access/Ownable.sol\":2293:2394  function renounceOwnership() public virtual onlyOwner {... */\n    tag_8:\n      tag_40\n      tag_41\n      jump\t// in\n    tag_40:\n      stop\n        /* \"@openzeppelin/contracts/access/Ownable.sol\":1638:1723  function owner() public view virtual returns (address) {... */\n    tag_9:\n      tag_42\n      tag_43\n      jump\t// in\n    tag_42:\n      mload(0x40)\n      tag_44\n      swap2\n      swap1\n      tag_29\n      jump\t// in\n    tag_44:\n      mload(0x40)\n      dup1\n      swap2\n      sub\n      swap1\n      return\n        /* \"hackathon/TourismRewardPool.sol\":253:284  uint256 public lastDistribution */\n    tag_10:\n      tag_45\n      tag_46\n      jump\t// in\n    tag_45:\n      mload(0x40)\n      tag_47\n      swap2\n      swap1\n      tag_33\n      jump\t// in\n    tag_47:\n      mload(0x40)\n      dup1\n      swap2\n      sub\n      swap1\n      return\n        /* \"hackathon/TourismRewardPool.sol\":220:246  IERC20 public tourismToken */\n    tag_11:\n      tag_48\n      tag_49\n      jump\t// in\n    tag_48:\n      mload(0x40)\n      tag_50\n      swap2\n      swap1\n      tag_51\n      jump\t// in\n    tag_50:\n      mload(0x40)\n      dup1\n      swap2\n      sub\n      swap1\n      return\n        /* \"hackathon/TourismRewardPool.sol\":852:1165  function registerVisit(address user) external onlyOwner {... */\n    tag_12:\n      tag_52\n      0x04\n      dup1\n      calldatasize\n      sub\n      dup2\n      add\n      swap1\n      tag_53\n      swap2\n      swap1\n      tag_20\n      jump\t// in\n    tag_53:\n      tag_54\n      jump\t// in\n    tag_52:\n      stop\n        /* \"hackathon/TourismRewardPool.sol\":326:374  mapping(address => uint256) public monthlyVisits */\n    tag_13:\n      tag_55\n      0x04\n      dup1\n      calldatasize\n      sub\n      dup2\n      add\n      swap1\n      tag_56\n      swap2\n      swap1\n      tag_20\n      jump\t// in\n    tag_56:\n      tag_57\n      jump\t// in\n    tag_55:\n      mload(0x40)\n      tag_58\n      swap2\n      swap1\n      tag_33\n      jump\t// in\n    tag_58:\n      mload(0x40)\n      dup1\n      swap2\n      sub\n      swap1\n      return\n        /* \"hackathon/TourismRewardPool.sol\":1173:1393  function fundPool(uint256 amount) external {... */\n    tag_14:\n      tag_59\n      0x04\n      dup1\n      calldatasize\n      sub\n      dup2\n      add\n      swap1\n      tag_60\n      swap2\n      swap1\n      tag_26\n      jump\t// in\n    tag_60:\n      tag_61\n      jump\t// in\n    tag_59:\n      stop\n        /* \"@openzeppelin/contracts/access/Ownable.sol\":2543:2758  function transferOwnership(address newOwner) public virtual onlyOwner {... */\n    tag_15:\n      tag_62\n      0x04\n      dup1\n      calldatasize\n      sub\n      dup2\n      add\n      swap1\n      tag_63\n      swap2\n      swap1\n      tag_20\n      jump\t// in\n    tag_63:\n      tag_64\n      jump\t// in\n    tag_62:\n      stop\n        /* \"hackathon/TourismRewardPool.sol\":381:429  mapping(address => bool) public isRegisteredUser */\n    tag_21:\n      mstore(0x20, 0x05)\n      dup1\n      0x00\n      mstore\n      keccak256(0x00, 0x40)\n      0x00\n      swap2\n      pop\n      sload\n      swap1\n      0x0100\n      exp\n      swap1\n      div\n      0xff\n      and\n      dup2\n      jump\t// out\n        /* \"hackathon/TourismRewardPool.sol\":436:465  address[] public participants */\n    tag_27:\n      0x06\n      dup2\n      dup2\n      sload\n      dup2\n      lt\n      tag_65\n      jumpi\n      0x00\n      dup1\n      revert\n    tag_65:\n      swap1\n      0x00\n      mstore\n      keccak256(0x00, 0x20)\n      add\n      0x00\n      swap2\n      pop\n      sload\n      swap1\n      0x0100\n      exp\n      swap1\n      div\n      0xffffffffffffffffffffffffffffffffffffffff\n      and\n      dup2\n      jump\t// out\n        /* \"hackathon/TourismRewardPool.sol\":291:317  uint256 public totalVisits */\n    tag_31:\n      sload(0x03)\n      dup2\n      jump\t// out\n        /* \"hackathon/TourismRewardPool.sol\":2295:2401  function getParticipants() external view returns (address[] memory) {... */\n    tag_35:\n        /* \"hackathon/TourismRewardPool.sol\":2345:2361  address[] memory */\n      0x60\n        /* \"hackathon/TourismRewardPool.sol\":2381:2393  participants */\n      0x06\n        /* \"hackathon/TourismRewardPool.sol\":2374:2393  return participants */\n      dup1\n      sload\n      dup1\n      0x20\n      mul\n      0x20\n      add\n      mload(0x40)\n      swap1\n      dup2\n      add\n      0x40\n      mstore\n      dup1\n      swap3\n      swap2\n      swap1\n      dup2\n      dup2\n      mstore\n      0x20\n      add\n      dup3\n      dup1\n      sload\n      dup1\n      iszero\n      tag_68\n      jumpi\n      0x20\n      mul\n      dup3\n      add\n      swap2\n      swap1\n      0x00\n      mstore\n      keccak256(0x00, 0x20)\n      swap1\n    tag_69:\n      dup2\n      0x00\n      swap1\n      sload\n      swap1\n      0x0100\n      exp\n      swap1\n      div\n      0xffffffffffffffffffffffffffffffffffffffff\n      and\n      0xffffffffffffffffffffffffffffffffffffffff\n      and\n      dup2\n      mstore\n      0x20\n      add\n      swap1\n      0x01\n      add\n      swap1\n      dup1\n      dup4\n      gt\n      tag_69\n      jumpi\n    tag_68:\n      pop\n      pop\n      pop\n      pop\n      pop\n      swap1\n      pop\n        /* \"hackathon/TourismRewardPool.sol\":2295:2401  function getParticipants() external view returns (address[] memory) {... */\n      swap1\n      jump\t// out\n        /* \"hackathon/TourismRewardPool.sol\":1401:2287  function distributeRewards() external onlyOwner {... */\n    tag_39:\n        /* \"@openzeppelin/contracts/access/Ownable.sol\":1531:1544  _checkOwner() */\n      tag_71\n        /* \"@openzeppelin/contracts/access/Ownable.sol\":1531:1542  _checkOwner */\n      tag_72\n        /* \"@openzeppelin/contracts/access/Ownable.sol\":1531:1544  _checkOwner() */\n      jump\t// in\n    tag_71:\n        /* \"hackathon/TourismRewardPool.sol\":1506:1513  30 days */\n      0x278d00\n        /* \"hackathon/TourismRewardPool.sol\":1487:1503  lastDistribution */\n      sload(0x02)\n        /* \"hackathon/TourismRewardPool.sol\":1487:1513  lastDistribution + 30 days */\n      tag_74\n      swap2\n      swap1\n      tag_75\n      jump\t// in\n    tag_74:\n        /* \"hackathon/TourismRewardPool.sol\":1468:1483  block.timestamp */\n      timestamp\n        /* \"hackathon/TourismRewardPool.sol\":1468:1513  block.timestamp >= lastDistribution + 30 days */\n      lt\n      iszero\n        /* \"hackathon/TourismRewardPool.sol\":1460:1545  require(block.timestamp >= lastDistribution + 30 days, \"Debes esperar al fin de mes\") */\n      tag_76\n      jumpi\n      mload(0x40)\n      0x08c379a000000000000000000000000000000000000000000000000000000000\n      dup2\n      mstore\n      0x04\n      add\n      tag_77\n      swap1\n      tag_78\n      jump\t// in\n    tag_77:\n      mload(0x40)\n      dup1\n      swap2\n      sub\n      swap1\n      revert\n    tag_76:\n        /* \"hackathon/TourismRewardPool.sol\":1578:1579  0 */\n      0x00\n        /* \"hackathon/TourismRewardPool.sol\":1564:1575  totalVisits */\n      sload(0x03)\n        /* \"hackathon/TourismRewardPool.sol\":1564:1579  totalVisits > 0 */\n      gt\n        /* \"hackathon/TourismRewardPool.sol\":1556:1610  require(totalVisits > 0, \"No hay visitas registradas\") */\n      tag_79\n      jumpi\n      mload(0x40)\n      0x08c379a000000000000000000000000000000000000000000000000000000000\n      dup2\n      mstore\n      0x04\n      add\n      tag_80\n      swap1\n      tag_81\n      jump\t// in\n    tag_80:\n      mload(0x40)\n      dup1\n      swap2\n      sub\n      swap1\n      revert\n    tag_79:\n        /* \"hackathon/TourismRewardPool.sol\":1623:1643  uint256 totalBalance */\n      0x00\n        /* \"hackathon/TourismRewardPool.sol\":1646:1658  tourismToken */\n      0x01\n      0x00\n      swap1\n      sload\n      swap1\n      0x0100\n      exp\n      swap1\n      div\n      0xffffffffffffffffffffffffffffffffffffffff\n      and\n        /* \"hackathon/TourismRewardPool.sol\":1646:1668  tourismToken.balanceOf */\n      0xffffffffffffffffffffffffffffffffffffffff\n      and\n      0x70a08231\n        /* \"hackathon/TourismRewardPool.sol\":1677:1681  this */\n      address\n        /* \"hackathon/TourismRewardPool.sol\":1646:1683  tourismToken.balanceOf(address(this)) */\n      mload(0x40)\n      dup3\n      0xffffffff\n      and\n      0xe0\n      shl\n      dup2\n      mstore\n      0x04\n      add\n      tag_82\n      swap2\n      swap1\n      tag_29\n      jump\t// in\n    tag_82:\n      0x20\n      mload(0x40)\n      dup1\n      dup4\n      sub\n      dup2\n      dup7\n      gas\n      staticcall\n      iszero\n      dup1\n      iszero\n      tag_84\n      jumpi\n      returndatacopy(0x00, 0x00, returndatasize)\n      revert(0x00, returndatasize)\n    tag_84:\n      pop\n      pop\n      pop\n      pop\n      mload(0x40)\n      returndatasize\n      not(0x1f)\n      0x1f\n      dup3\n      add\n      and\n      dup3\n      add\n      dup1\n      0x40\n      mstore\n      pop\n      dup2\n      add\n      swap1\n      tag_85\n      swap2\n      swap1\n      tag_86\n      jump\t// in\n    tag_85:\n        /* \"hackathon/TourismRewardPool.sol\":1623:1683  uint256 totalBalance = tourismToken.balanceOf(address(this)) */\n      swap1\n      pop\n        /* \"hackathon/TourismRewardPool.sol\":1701:1710  uint256 i */\n      0x00\n        /* \"hackathon/TourismRewardPool.sol\":1713:1714  0 */\n      0x00\n        /* \"hackathon/TourismRewardPool.sol\":1701:1714  uint256 i = 0 */\n      swap1\n      pop\n        /* \"hackathon/TourismRewardPool.sol\":1696:2127  for (uint256 i = 0; i < participants.length; i++) {... */\n    tag_87:\n        /* \"hackathon/TourismRewardPool.sol\":1720:1732  participants */\n      0x06\n        /* \"hackathon/TourismRewardPool.sol\":1720:1739  participants.length */\n      dup1\n      sload\n      swap1\n      pop\n        /* \"hackathon/TourismRewardPool.sol\":1716:1717  i */\n      dup2\n        /* \"hackathon/TourismRewardPool.sol\":1716:1739  i < participants.length */\n      lt\n        /* \"hackathon/TourismRewardPool.sol\":1696:2127  for (uint256 i = 0; i < participants.length; i++) {... */\n      iszero\n      tag_88\n      jumpi\n        /* \"hackathon/TourismRewardPool.sol\":1761:1773  address user */\n      0x00\n        /* \"hackathon/TourismRewardPool.sol\":1776:1788  participants */\n      0x06\n        /* \"hackathon/TourismRewardPool.sol\":1789:1790  i */\n      dup3\n        /* \"hackathon/TourismRewardPool.sol\":1776:1791  participants[i] */\n      dup2\n      sload\n      dup2\n      lt\n      tag_90\n      jumpi\n      tag_91\n      tag_92\n      jump\t// in\n    tag_91:\n    tag_90:\n      swap1\n      0x00\n      mstore\n      keccak256(0x00, 0x20)\n      add\n      0x00\n      swap1\n      sload\n      swap1\n      0x0100\n      exp\n      swap1\n      div\n      0xffffffffffffffffffffffffffffffffffffffff\n      and\n        /* \"hackathon/TourismRewardPool.sol\":1761:1791  address user = participants[i] */\n      swap1\n      pop\n        /* \"hackathon/TourismRewardPool.sol\":1806:1820  uint256 visits */\n      0x00\n        /* \"hackathon/TourismRewardPool.sol\":1823:1836  monthlyVisits */\n      0x04\n        /* \"hackathon/TourismRewardPool.sol\":1823:1842  monthlyVisits[user] */\n      0x00\n        /* \"hackathon/TourismRewardPool.sol\":1837:1841  user */\n      dup4\n        /* \"hackathon/TourismRewardPool.sol\":1823:1842  monthlyVisits[user] */\n      0xffffffffffffffffffffffffffffffffffffffff\n      and\n      0xffffffffffffffffffffffffffffffffffffffff\n      and\n      dup2\n      mstore\n      0x20\n      add\n      swap1\n      dup2\n      mstore\n      0x20\n      add\n      0x00\n      keccak256\n      sload\n        /* \"hackathon/TourismRewardPool.sol\":1806:1842  uint256 visits = monthlyVisits[user] */\n      swap1\n      pop\n        /* \"hackathon/TourismRewardPool.sol\":1872:1873  0 */\n      0x00\n        /* \"hackathon/TourismRewardPool.sol\":1863:1869  visits */\n      dup2\n        /* \"hackathon/TourismRewardPool.sol\":1863:1873  visits > 0 */\n      gt\n        /* \"hackathon/TourismRewardPool.sol\":1859:2076  if (visits > 0) {... */\n      iszero\n      tag_94\n      jumpi\n        /* \"hackathon/TourismRewardPool.sol\":1894:1908  uint256 reward */\n      0x00\n        /* \"hackathon/TourismRewardPool.sol\":1937:1948  totalVisits */\n      sload(0x03)\n        /* \"hackathon/TourismRewardPool.sol\":1921:1933  totalBalance */\n      dup6\n        /* \"hackathon/TourismRewardPool.sol\":1912:1918  visits */\n      dup4\n        /* \"hackathon/TourismRewardPool.sol\":1912:1933  visits * totalBalance */\n      tag_95\n      swap2\n      swap1\n      tag_96\n      jump\t// in\n    tag_95:\n        /* \"hackathon/TourismRewardPool.sol\":1911:1948  (visits * totalBalance) / totalVisits */\n      tag_97\n      swap2\n      swap1\n      tag_98\n      jump\t// in\n    tag_97:\n        /* \"hackathon/TourismRewardPool.sol\":1894:1948  uint256 reward = (visits * totalBalance) / totalVisits */\n      swap1\n      pop\n        /* \"hackathon/TourismRewardPool.sol\":1980:1981  0 */\n      0x00\n        /* \"hackathon/TourismRewardPool.sol\":1971:1977  reward */\n      dup2\n        /* \"hackathon/TourismRewardPool.sol\":1971:1981  reward > 0 */\n      gt\n        /* \"hackathon/TourismRewardPool.sol\":1967:2061  if (reward > 0) {... */\n      iszero\n      tag_99\n      jumpi\n        /* \"hackathon/TourismRewardPool.sol\":2006:2018  tourismToken */\n      0x01\n      0x00\n      swap1\n      sload\n      swap1\n      0x0100\n      exp\n      swap1\n      div\n      0xffffffffffffffffffffffffffffffffffffffff\n      and\n        /* \"hackathon/TourismRewardPool.sol\":2006:2027  tourismToken.transfer */\n      0xffffffffffffffffffffffffffffffffffffffff\n      and\n      0xa9059cbb\n        /* \"hackathon/TourismRewardPool.sol\":2028:2032  user */\n      dup5\n        /* \"hackathon/TourismRewardPool.sol\":2034:2040  reward */\n      dup4\n        /* \"hackathon/TourismRewardPool.sol\":2006:2041  tourismToken.transfer(user, reward) */\n      mload(0x40)\n      dup4\n      0xffffffff\n      and\n      0xe0\n      shl\n      dup2\n      mstore\n      0x04\n      add\n      tag_100\n      swap3\n      swap2\n      swap1\n      tag_101\n      jump\t// in\n    tag_100:\n      0x20\n      mload(0x40)\n      dup1\n      dup4\n      sub\n      dup2\n      0x00\n      dup8\n      gas\n      call\n      iszero\n      dup1\n      iszero\n      tag_103\n      jumpi\n      returndatacopy(0x00, 0x00, returndatasize)\n      revert(0x00, returndatasize)\n    tag_103:\n      pop\n      pop\n      pop\n      pop\n      mload(0x40)\n      returndatasize\n      not(0x1f)\n      0x1f\n      dup3\n      add\n      and\n      dup3\n      add\n      dup1\n      0x40\n      mstore\n      pop\n      dup2\n      add\n      swap1\n      tag_104\n      swap2\n      swap1\n      tag_105\n      jump\t// in\n    tag_104:\n      pop\n        /* \"hackathon/TourismRewardPool.sol\":1967:2061  if (reward > 0) {... */\n    tag_99:\n        /* \"hackathon/TourismRewardPool.sol\":1875:2076  {... */\n      pop\n        /* \"hackathon/TourismRewardPool.sol\":1859:2076  if (visits > 0) {... */\n    tag_94:\n        /* \"hackathon/TourismRewardPool.sol\":2114:2115  0 */\n      0x00\n        /* \"hackathon/TourismRewardPool.sol\":2092:2105  monthlyVisits */\n      0x04\n        /* \"hackathon/TourismRewardPool.sol\":2092:2111  monthlyVisits[user] */\n      0x00\n        /* \"hackathon/TourismRewardPool.sol\":2106:2110  user */\n      dup5\n        /* \"hackathon/TourismRewardPool.sol\":2092:2111  monthlyVisits[user] */\n      0xffffffffffffffffffffffffffffffffffffffff\n      and\n      0xffffffffffffffffffffffffffffffffffffffff\n      and\n      dup2\n      mstore\n      0x20\n      add\n      swap1\n      dup2\n      mstore\n      0x20\n      add\n      0x00\n      keccak256\n        /* \"hackathon/TourismRewardPool.sol\":2092:2115  monthlyVisits[user] = 0 */\n      dup2\n      swap1\n      sstore\n      pop\n        /* \"hackathon/TourismRewardPool.sol\":1746:2127  {... */\n      pop\n      pop\n        /* \"hackathon/TourismRewardPool.sol\":1741:1744  i++ */\n      dup1\n      dup1\n      0x01\n      add\n      swap2\n      pop\n      pop\n        /* \"hackathon/TourismRewardPool.sol\":1696:2127  for (uint256 i = 0; i < participants.length; i++) {... */\n      jump(tag_87)\n    tag_88:\n      pop\n        /* \"hackathon/TourismRewardPool.sol\":2153:2154  0 */\n      0x00\n        /* \"hackathon/TourismRewardPool.sol\":2139:2150  totalVisits */\n      0x03\n        /* \"hackathon/TourismRewardPool.sol\":2139:2154  totalVisits = 0 */\n      dup2\n      swap1\n      sstore\n      pop\n        /* \"hackathon/TourismRewardPool.sol\":2184:2199  block.timestamp */\n      timestamp\n        /* \"hackathon/TourismRewardPool.sol\":2165:2181  lastDistribution */\n      0x02\n        /* \"hackathon/TourismRewardPool.sol\":2165:2199  lastDistribution = block.timestamp */\n      dup2\n      swap1\n      sstore\n      pop\n        /* \"hackathon/TourismRewardPool.sol\":2217:2229  participants */\n      0x06\n      0x00\n        /* \"hackathon/TourismRewardPool.sol\":2210:2229  delete participants */\n      tag_106\n      swap2\n      swap1\n      tag_107\n      jump\t// in\n    tag_106:\n        /* \"hackathon/TourismRewardPool.sol\":2247:2279  RewardsDistributed(totalBalance) */\n      0x6d1c76d614228b523baa4dcd9539e2c713b54ff4ab3ff2d1627e7f6cd32be442\n        /* \"hackathon/TourismRewardPool.sol\":2266:2278  totalBalance */\n      dup2\n        /* \"hackathon/TourismRewardPool.sol\":2247:2279  RewardsDistributed(totalBalance) */\n      mload(0x40)\n      tag_108\n      swap2\n      swap1\n      tag_33\n      jump\t// in\n    tag_108:\n      mload(0x40)\n      dup1\n      swap2\n      sub\n      swap1\n      log1\n        /* \"hackathon/TourismRewardPool.sol\":1449:2287  {... */\n      pop\n        /* \"hackathon/TourismRewardPool.sol\":1401:2287  function distributeRewards() external onlyOwner {... */\n      jump\t// out\n        /* \"@openzeppelin/contracts/access/Ownable.sol\":2293:2394  function renounceOwnership() public virtual onlyOwner {... */\n    tag_41:\n        /* \"@openzeppelin/contracts/access/Ownable.sol\":1531:1544  _checkOwner() */\n      tag_110\n        /* \"@openzeppelin/contracts/access/Ownable.sol\":1531:1542  _checkOwner */\n      tag_72\n        /* \"@openzeppelin/contracts/access/Ownable.sol\":1531:1544  _checkOwner() */\n      jump\t// in\n    tag_110:\n        /* \"@openzeppelin/contracts/access/Ownable.sol\":2357:2387  _transferOwnership(address(0)) */\n      tag_112\n        /* \"@openzeppelin/contracts/access/Ownable.sol\":2384:2385  0 */\n      0x00\n        /* \"@openzeppelin/contracts/access/Ownable.sol\":2357:2375  _transferOwnership */\n      tag_113\n        /* \"@openzeppelin/contracts/access/Ownable.sol\":2357:2387  _transferOwnership(address(0)) */\n      jump\t// in\n    tag_112:\n        /* \"@openzeppelin/contracts/access/Ownable.sol\":2293:2394  function renounceOwnership() public virtual onlyOwner {... */\n      jump\t// out\n        /* \"@openzeppelin/contracts/access/Ownable.sol\":1638:1723  function owner() public view virtual returns (address) {... */\n    tag_43:\n        /* \"@openzeppelin/contracts/access/Ownable.sol\":1684:1691  address */\n      0x00\n        /* \"@openzeppelin/contracts/access/Ownable.sol\":1710:1716  _owner */\n      0x00\n      0x00\n      swap1\n      sload\n      swap1\n      0x0100\n      exp\n      swap1\n      div\n      0xffffffffffffffffffffffffffffffffffffffff\n      and\n        /* \"@openzeppelin/contracts/access/Ownable.sol\":1703:1716  return _owner */\n      swap1\n      pop\n        /* \"@openzeppelin/contracts/access/Ownable.sol\":1638:1723  function owner() public view virtual returns (address) {... */\n      swap1\n      jump\t// out\n        /* \"hackathon/TourismRewardPool.sol\":253:284  uint256 public lastDistribution */\n    tag_46:\n      sload(0x02)\n      dup2\n      jump\t// out\n        /* \"hackathon/TourismRewardPool.sol\":220:246  IERC20 public tourismToken */\n    tag_49:\n      0x01\n      0x00\n      swap1\n      sload\n      swap1\n      0x0100\n      exp\n      swap1\n      div\n      0xffffffffffffffffffffffffffffffffffffffff\n      and\n      dup2\n      jump\t// out\n        /* \"hackathon/TourismRewardPool.sol\":852:1165  function registerVisit(address user) external onlyOwner {... */\n    tag_54:\n        /* \"@openzeppelin/contracts/access/Ownable.sol\":1531:1544  _checkOwner() */\n      tag_116\n        /* \"@openzeppelin/contracts/access/Ownable.sol\":1531:1542  _checkOwner */\n      tag_72\n        /* \"@openzeppelin/contracts/access/Ownable.sol\":1531:1544  _checkOwner() */\n      jump\t// in\n    tag_116:\n        /* \"hackathon/TourismRewardPool.sol\":924:940  isRegisteredUser */\n      0x05\n        /* \"hackathon/TourismRewardPool.sol\":924:946  isRegisteredUser[user] */\n      0x00\n        /* \"hackathon/TourismRewardPool.sol\":941:945  user */\n      dup3\n        /* \"hackathon/TourismRewardPool.sol\":924:946  isRegisteredUser[user] */\n      0xffffffffffffffffffffffffffffffffffffffff\n      and\n      0xffffffffffffffffffffffffffffffffffffffff\n      and\n      dup2\n      mstore\n      0x20\n      add\n      swap1\n      dup2\n      mstore\n      0x20\n      add\n      0x00\n      keccak256\n      0x00\n      swap1\n      sload\n      swap1\n      0x0100\n      exp\n      swap1\n      div\n      0xff\n      and\n        /* \"hackathon/TourismRewardPool.sol\":919:1042  if (!isRegisteredUser[user]) {... */\n      tag_118\n      jumpi\n        /* \"hackathon/TourismRewardPool.sol\":988:992  true */\n      0x01\n        /* \"hackathon/TourismRewardPool.sol\":963:979  isRegisteredUser */\n      0x05\n        /* \"hackathon/TourismRewardPool.sol\":963:985  isRegisteredUser[user] */\n      0x00\n        /* \"hackathon/TourismRewardPool.sol\":980:984  user */\n      dup4\n        /* \"hackathon/TourismRewardPool.sol\":963:985  isRegisteredUser[user] */\n      0xffffffffffffffffffffffffffffffffffffffff\n      and\n      0xffffffffffffffffffffffffffffffffffffffff\n      and\n      dup2\n      mstore\n      0x20\n      add\n      swap1\n      dup2\n      mstore\n      0x20\n      add\n      0x00\n      keccak256\n      0x00\n        /* \"hackathon/TourismRewardPool.sol\":963:992  isRegisteredUser[user] = true */\n      0x0100\n      exp\n      dup2\n      sload\n      dup2\n      0xff\n      mul\n      not\n      and\n      swap1\n      dup4\n      iszero\n      iszero\n      mul\n      or\n      swap1\n      sstore\n      pop\n        /* \"hackathon/TourismRewardPool.sol\":1007:1019  participants */\n      0x06\n        /* \"hackathon/TourismRewardPool.sol\":1025:1029  user */\n      dup2\n        /* \"hackathon/TourismRewardPool.sol\":1007:1030  participants.push(user) */\n      swap1\n      dup1\n      0x01\n      dup2\n      sload\n      add\n      dup1\n      dup3\n      sstore\n      dup1\n      swap2\n      pop\n      pop\n      0x01\n      swap1\n      sub\n      swap1\n      0x00\n      mstore\n      keccak256(0x00, 0x20)\n      add\n      0x00\n      swap1\n      swap2\n      swap1\n      swap2\n      swap1\n      swap2\n      0x0100\n      exp\n      dup2\n      sload\n      dup2\n      0xffffffffffffffffffffffffffffffffffffffff\n      mul\n      not\n      and\n      swap1\n      dup4\n      0xffffffffffffffffffffffffffffffffffffffff\n      and\n      mul\n      or\n      swap1\n      sstore\n      pop\n        /* \"hackathon/TourismRewardPool.sol\":919:1042  if (!isRegisteredUser[user]) {... */\n    tag_118:\n        /* \"hackathon/TourismRewardPool.sol\":1052:1065  monthlyVisits */\n      0x04\n        /* \"hackathon/TourismRewardPool.sol\":1052:1071  monthlyVisits[user] */\n      0x00\n        /* \"hackathon/TourismRewardPool.sol\":1066:1070  user */\n      dup3\n        /* \"hackathon/TourismRewardPool.sol\":1052:1071  monthlyVisits[user] */\n      0xffffffffffffffffffffffffffffffffffffffff\n      and\n      0xffffffffffffffffffffffffffffffffffffffff\n      and\n      dup2\n      mstore\n      0x20\n      add\n      swap1\n      dup2\n      mstore\n      0x20\n      add\n      0x00\n      keccak256\n      0x00\n        /* \"hackathon/TourismRewardPool.sol\":1052:1073  monthlyVisits[user]++ */\n      dup2\n      sload\n      dup1\n      swap3\n      swap2\n      swap1\n      tag_120\n      swap1\n      tag_121\n      jump\t// in\n    tag_120:\n      swap2\n      swap1\n      pop\n      sstore\n      pop\n        /* \"hackathon/TourismRewardPool.sol\":1084:1095  totalVisits */\n      0x03\n      0x00\n        /* \"hackathon/TourismRewardPool.sol\":1084:1097  totalVisits++ */\n      dup2\n      sload\n      dup1\n      swap3\n      swap2\n      swap1\n      tag_122\n      swap1\n      tag_121\n      jump\t// in\n    tag_122:\n      swap2\n      swap1\n      pop\n      sstore\n      pop\n        /* \"hackathon/TourismRewardPool.sol\":1131:1135  user */\n      dup1\n        /* \"hackathon/TourismRewardPool.sol\":1115:1157  VisitRegistered(user, monthlyVisits[user]) */\n      0xffffffffffffffffffffffffffffffffffffffff\n      and\n      0x15af81b9f76384da326b60e17b92e7aa06ece24f8085d26111177e96e7ba316a\n        /* \"hackathon/TourismRewardPool.sol\":1137:1150  monthlyVisits */\n      0x04\n        /* \"hackathon/TourismRewardPool.sol\":1137:1156  monthlyVisits[user] */\n      0x00\n        /* \"hackathon/TourismRewardPool.sol\":1151:1155  user */\n      dup5\n        /* \"hackathon/TourismRewardPool.sol\":1137:1156  monthlyVisits[user] */\n      0xffffffffffffffffffffffffffffffffffffffff\n      and\n      0xffffffffffffffffffffffffffffffffffffffff\n      and\n      dup2\n      mstore\n      0x20\n      add\n      swap1\n      dup2\n      mstore\n      0x20\n      add\n      0x00\n      keccak256\n      sload\n        /* \"hackathon/TourismRewardPool.sol\":1115:1157  VisitRegistered(user, monthlyVisits[user]) */\n      mload(0x40)\n      tag_123\n      swap2\n      swap1\n      tag_33\n      jump\t// in\n    tag_123:\n      mload(0x40)\n      dup1\n      swap2\n      sub\n      swap1\n      log2\n        /* \"hackathon/TourismRewardPool.sol\":852:1165  function registerVisit(address user) external onlyOwner {... */\n      pop\n      jump\t// out\n        /* \"hackathon/TourismRewardPool.sol\":326:374  mapping(address => uint256) public monthlyVisits */\n    tag_57:\n      mstore(0x20, 0x04)\n      dup1\n      0x00\n      mstore\n      keccak256(0x00, 0x40)\n      0x00\n      swap2\n      pop\n      swap1\n      pop\n      sload\n      dup2\n      jump\t// out\n        /* \"hackathon/TourismRewardPool.sol\":1173:1393  function fundPool(uint256 amount) external {... */\n    tag_61:\n        /* \"hackathon/TourismRewardPool.sol\":1244:1245  0 */\n      0x00\n        /* \"hackathon/TourismRewardPool.sol\":1235:1241  amount */\n      dup2\n        /* \"hackathon/TourismRewardPool.sol\":1235:1245  amount > 0 */\n      gt\n        /* \"hackathon/TourismRewardPool.sol\":1227:1268  require(amount > 0, \"Amount must be > 0\") */\n      tag_125\n      jumpi\n      mload(0x40)\n      0x08c379a000000000000000000000000000000000000000000000000000000000\n      dup2\n      mstore\n      0x04\n      add\n      tag_126\n      swap1\n      tag_127\n      jump\t// in\n    tag_126:\n      mload(0x40)\n      dup1\n      swap2\n      sub\n      swap1\n      revert\n    tag_125:\n        /* \"hackathon/TourismRewardPool.sol\":1279:1291  tourismToken */\n      0x01\n      0x00\n      swap1\n      sload\n      swap1\n      0x0100\n      exp\n      swap1\n      div\n      0xffffffffffffffffffffffffffffffffffffffff\n      and\n        /* \"hackathon/TourismRewardPool.sol\":1279:1304  tourismToken.transferFrom */\n      0xffffffffffffffffffffffffffffffffffffffff\n      and\n      0x23b872dd\n        /* \"hackathon/TourismRewardPool.sol\":1305:1315  msg.sender */\n      caller\n        /* \"hackathon/TourismRewardPool.sol\":1325:1329  this */\n      address\n        /* \"hackathon/TourismRewardPool.sol\":1332:1338  amount */\n      dup5\n        /* \"hackathon/TourismRewardPool.sol\":1279:1339  tourismToken.transferFrom(msg.sender, address(this), amount) */\n      mload(0x40)\n      dup5\n      0xffffffff\n      and\n      0xe0\n      shl\n      dup2\n      mstore\n      0x04\n      add\n      tag_128\n      swap4\n      swap3\n      swap2\n      swap1\n      tag_129\n      jump\t// in\n    tag_128:\n      0x20\n      mload(0x40)\n      dup1\n      dup4\n      sub\n      dup2\n      0x00\n      dup8\n      gas\n      call\n      iszero\n      dup1\n      iszero\n      tag_131\n      jumpi\n      returndatacopy(0x00, 0x00, returndatasize)\n      revert(0x00, returndatasize)\n    tag_131:\n      pop\n      pop\n      pop\n      pop\n      mload(0x40)\n      returndatasize\n      not(0x1f)\n      0x1f\n      dup3\n      add\n      and\n      dup3\n      add\n      dup1\n      0x40\n      mstore\n      pop\n      dup2\n      add\n      swap1\n      tag_132\n      swap2\n      swap1\n      tag_105\n      jump\t// in\n    tag_132:\n      pop\n        /* \"hackathon/TourismRewardPool.sol\":1366:1376  msg.sender */\n      caller\n        /* \"hackathon/TourismRewardPool.sol\":1355:1385  PoolFunded(msg.sender, amount) */\n      0xffffffffffffffffffffffffffffffffffffffff\n      and\n      0x32173d8e51cec3a6fe484b7a1c3febe760cdf96e03d4cca36a43563a4333e838\n        /* \"hackathon/TourismRewardPool.sol\":1378:1384  amount */\n      dup3\n        /* \"hackathon/TourismRewardPool.sol\":1355:1385  PoolFunded(msg.sender, amount) */\n      mload(0x40)\n      tag_133\n      swap2\n      swap1\n      tag_33\n      jump\t// in\n    tag_133:\n      mload(0x40)\n      dup1\n      swap2\n      sub\n      swap1\n      log2\n        /* \"hackathon/TourismRewardPool.sol\":1173:1393  function fundPool(uint256 amount) external {... */\n      pop\n      jump\t// out\n        /* \"@openzeppelin/contracts/access/Ownable.sol\":2543:2758  function transferOwnership(address newOwner) public virtual onlyOwner {... */\n    tag_64:\n        /* \"@openzeppelin/contracts/access/Ownable.sol\":1531:1544  _checkOwner() */\n      tag_135\n        /* \"@openzeppelin/contracts/access/Ownable.sol\":1531:1542  _checkOwner */\n      tag_72\n        /* \"@openzeppelin/contracts/access/Ownable.sol\":1531:1544  _checkOwner() */\n      jump\t// in\n    tag_135:\n        /* \"@openzeppelin/contracts/access/Ownable.sol\":2647:2648  0 */\n      0x00\n        /* \"@openzeppelin/contracts/access/Ownable.sol\":2627:2649  newOwner == address(0) */\n      0xffffffffffffffffffffffffffffffffffffffff\n      and\n        /* \"@openzeppelin/contracts/access/Ownable.sol\":2627:2635  newOwner */\n      dup2\n        /* \"@openzeppelin/contracts/access/Ownable.sol\":2627:2649  newOwner == address(0) */\n      0xffffffffffffffffffffffffffffffffffffffff\n      and\n      sub\n        /* \"@openzeppelin/contracts/access/Ownable.sol\":2623:2714  if (newOwner == address(0)) {... */\n      tag_137\n      jumpi\n        /* \"@openzeppelin/contracts/access/Ownable.sol\":2700:2701  0 */\n      0x00\n        /* \"@openzeppelin/contracts/access/Ownable.sol\":2672:2703  OwnableInvalidOwner(address(0)) */\n      mload(0x40)\n      0x1e4fbdf700000000000000000000000000000000000000000000000000000000\n      dup2\n      mstore\n      0x04\n      add\n      tag_138\n      swap2\n      swap1\n      tag_29\n      jump\t// in\n    tag_138:\n      mload(0x40)\n      dup1\n      swap2\n      sub\n      swap1\n      revert\n        /* \"@openzeppelin/contracts/access/Ownable.sol\":2623:2714  if (newOwner == address(0)) {... */\n    tag_137:\n        /* \"@openzeppelin/contracts/access/Ownable.sol\":2723:2751  _transferOwnership(newOwner) */\n      tag_139\n        /* \"@openzeppelin/contracts/access/Ownable.sol\":2742:2750  newOwner */\n      dup2\n        /* \"@openzeppelin/contracts/access/Ownable.sol\":2723:2741  _transferOwnership */\n      tag_113\n        /* \"@openzeppelin/contracts/access/Ownable.sol\":2723:2751  _transferOwnership(newOwner) */\n      jump\t// in\n    tag_139:\n        /* \"@openzeppelin/contracts/access/Ownable.sol\":2543:2758  function transferOwnership(address newOwner) public virtual onlyOwner {... */\n      pop\n      jump\t// out\n        /* \"@openzeppelin/contracts/access/Ownable.sol\":1796:1958  function _checkOwner() internal view virtual {... */\n    tag_72:\n        /* \"@openzeppelin/contracts/access/Ownable.sol\":1866:1878  _msgSender() */\n      tag_141\n        /* \"@openzeppelin/contracts/access/Ownable.sol\":1866:1876  _msgSender */\n      tag_142\n        /* \"@openzeppelin/contracts/access/Ownable.sol\":1866:1878  _msgSender() */\n      jump\t// in\n    tag_141:\n        /* \"@openzeppelin/contracts/access/Ownable.sol\":1855:1878  owner() != _msgSender() */\n      0xffffffffffffffffffffffffffffffffffffffff\n      and\n        /* \"@openzeppelin/contracts/access/Ownable.sol\":1855:1862  owner() */\n      tag_143\n        /* \"@openzeppelin/contracts/access/Ownable.sol\":1855:1860  owner */\n      tag_43\n        /* \"@openzeppelin/contracts/access/Ownable.sol\":1855:1862  owner() */\n      jump\t// in\n    tag_143:\n        /* \"@openzeppelin/contracts/access/Ownable.sol\":1855:1878  owner() != _msgSender() */\n      0xffffffffffffffffffffffffffffffffffffffff\n      and\n      eq\n        /* \"@openzeppelin/contracts/access/Ownable.sol\":1851:1952  if (owner() != _msgSender()) {... */\n      tag_144\n      jumpi\n        /* \"@openzeppelin/contracts/access/Ownable.sol\":1928:1940  _msgSender() */\n      tag_145\n        /* \"@openzeppelin/contracts/access/Ownable.sol\":1928:1938  _msgSender */\n      tag_142\n        /* \"@openzeppelin/contracts/access/Ownable.sol\":1928:1940  _msgSender() */\n      jump\t// in\n    tag_145:\n        /* \"@openzeppelin/contracts/access/Ownable.sol\":1901:1941  OwnableUnauthorizedAccount(_msgSender()) */\n      mload(0x40)\n      0x118cdaa700000000000000000000000000000000000000000000000000000000\n      dup2\n      mstore\n      0x04\n      add\n      tag_146\n      swap2\n      swap1\n      tag_29\n      jump\t// in\n    tag_146:\n      mload(0x40)\n      dup1\n      swap2\n      sub\n      swap1\n      revert\n        /* \"@openzeppelin/contracts/access/Ownable.sol\":1851:1952  if (owner() != _msgSender()) {... */\n    tag_144:\n        /* \"@openzeppelin/contracts/access/Ownable.sol\":1796:1958  function _checkOwner() internal view virtual {... */\n      jump\t// out\n        /* \"@openzeppelin/contracts/access/Ownable.sol\":2912:3099  function _transferOwnership(address newOwner) internal virtual {... */\n    tag_113:\n        /* \"@openzeppelin/contracts/access/Ownable.sol\":2985:3001  address oldOwner */\n      0x00\n        /* \"@openzeppelin/contracts/access/Ownable.sol\":3004:3010  _owner */\n      0x00\n      0x00\n      swap1\n      sload\n      swap1\n      0x0100\n      exp\n      swap1\n      div\n      0xffffffffffffffffffffffffffffffffffffffff\n      and\n        /* \"@openzeppelin/contracts/access/Ownable.sol\":2985:3010  address oldOwner = _owner */\n      swap1\n      pop\n        /* \"@openzeppelin/contracts/access/Ownable.sol\":3029:3037  newOwner */\n      dup2\n        /* \"@openzeppelin/contracts/access/Ownable.sol\":3020:3026  _owner */\n      0x00\n      0x00\n        /* \"@openzeppelin/contracts/access/Ownable.sol\":3020:3037  _owner = newOwner */\n      0x0100\n      exp\n      dup2\n      sload\n      dup2\n      0xffffffffffffffffffffffffffffffffffffffff\n      mul\n      not\n      and\n      swap1\n      dup4\n      0xffffffffffffffffffffffffffffffffffffffff\n      and\n      mul\n      or\n      swap1\n      sstore\n      pop\n        /* \"@openzeppelin/contracts/access/Ownable.sol\":3083:3091  newOwner */\n      dup2\n        /* \"@openzeppelin/contracts/access/Ownable.sol\":3052:3092  OwnershipTransferred(oldOwner, newOwner) */\n      0xffffffffffffffffffffffffffffffffffffffff\n      and\n        /* \"@openzeppelin/contracts/access/Ownable.sol\":3073:3081  oldOwner */\n      dup2\n        /* \"@openzeppelin/contracts/access/Ownable.sol\":3052:3092  OwnershipTransferred(oldOwner, newOwner) */\n      0xffffffffffffffffffffffffffffffffffffffff\n      and\n      0x8be0079c531659141344cd1fd0a4f28419497f9722a3daafe3b4186f6b6457e0\n      mload(0x40)\n      mload(0x40)\n      dup1\n      swap2\n      sub\n      swap1\n      log3\n        /* \"@openzeppelin/contracts/access/Ownable.sol\":2975:3099  {... */\n      pop\n        /* \"@openzeppelin/contracts/access/Ownable.sol\":2912:3099  function _transferOwnership(address newOwner) internal virtual {... */\n      pop\n      jump\t// out\n        /* \"@openzeppelin/contracts/utils/Context.sol\":656:752  function _msgSender() internal view virtual returns (address) {... */\n    tag_142:\n        /* \"@openzeppelin/contracts/utils/Context.sol\":709:716  address */\n      0x00\n        /* \"@openzeppelin/contracts/utils/Context.sol\":735:745  msg.sender */\n      caller\n        /* \"@openzeppelin/contracts/utils/Context.sol\":728:745  return msg.sender */\n      swap1\n      pop\n        /* \"@openzeppelin/contracts/utils/Context.sol\":656:752  function _msgSender() internal view virtual returns (address) {... */\n      swap1\n      jump\t// out\n    tag_107:\n      pop\n      dup1\n      sload\n      0x00\n      dup3\n      sstore\n      swap1\n      0x00\n      mstore\n      keccak256(0x00, 0x20)\n      swap1\n      dup2\n      add\n      swap1\n      tag_150\n      swap2\n      swap1\n      tag_151\n      jump\t// in\n    tag_150:\n      pop\n      jump\t// out\n    tag_151:\n    tag_152:\n      dup1\n      dup3\n      gt\n      iszero\n      tag_153\n      jumpi\n      0x00\n      dup2\n      0x00\n      swap1\n      sstore\n      pop\n      0x01\n      add\n      jump(tag_152)\n    tag_153:\n      pop\n      swap1\n      jump\t// out\n        /* \"#utility.yul\":88:205   */\n    tag_155:\n        /* \"#utility.yul\":197:198   */\n      0x00\n        /* \"#utility.yul\":194:195   */\n      0x00\n        /* \"#utility.yul\":187:199   */\n      revert\n        /* \"#utility.yul\":334:460   */\n    tag_157:\n        /* \"#utility.yul\":371:378   */\n      0x00\n        /* \"#utility.yul\":411:453   */\n      0xffffffffffffffffffffffffffffffffffffffff\n        /* \"#utility.yul\":404:409   */\n      dup3\n        /* \"#utility.yul\":400:454   */\n      and\n        /* \"#utility.yul\":389:454   */\n      swap1\n      pop\n        /* \"#utility.yul\":334:460   */\n      swap2\n      swap1\n      pop\n      jump\t// out\n        /* \"#utility.yul\":466:562   */\n    tag_158:\n        /* \"#utility.yul\":503:510   */\n      0x00\n        /* \"#utility.yul\":532:556   */\n      tag_198\n        /* \"#utility.yul\":550:555   */\n      dup3\n        /* \"#utility.yul\":532:556   */\n      tag_157\n      jump\t// in\n    tag_198:\n        /* \"#utility.yul\":521:556   */\n      swap1\n      pop\n        /* \"#utility.yul\":466:562   */\n      swap2\n      swap1\n      pop\n      jump\t// out\n        /* \"#utility.yul\":568:690   */\n    tag_159:\n        /* \"#utility.yul\":641:665   */\n      tag_200\n        /* \"#utility.yul\":659:664   */\n      dup2\n        /* \"#utility.yul\":641:665   */\n      tag_158\n      jump\t// in\n    tag_200:\n        /* \"#utility.yul\":634:639   */\n      dup2\n        /* \"#utility.yul\":631:666   */\n      eq\n        /* \"#utility.yul\":621:684   */\n      tag_201\n      jumpi\n        /* \"#utility.yul\":680:681   */\n      0x00\n        /* \"#utility.yul\":677:678   */\n      0x00\n        /* \"#utility.yul\":670:682   */\n      revert\n        /* \"#utility.yul\":621:684   */\n    tag_201:\n        /* \"#utility.yul\":568:690   */\n      pop\n      jump\t// out\n        /* \"#utility.yul\":696:835   */\n    tag_160:\n        /* \"#utility.yul\":742:747   */\n      0x00\n        /* \"#utility.yul\":780:786   */\n      dup2\n        /* \"#utility.yul\":767:787   */\n      calldataload\n        /* \"#utility.yul\":758:787   */\n      swap1\n      pop\n        /* \"#utility.yul\":796:829   */\n      tag_203\n        /* \"#utility.yul\":823:828   */\n      dup2\n        /* \"#utility.yul\":796:829   */\n      tag_159\n      jump\t// in\n    tag_203:\n        /* \"#utility.yul\":696:835   */\n      swap3\n      swap2\n      pop\n      pop\n      jump\t// out\n        /* \"#utility.yul\":841:1170   */\n    tag_20:\n        /* \"#utility.yul\":900:906   */\n      0x00\n        /* \"#utility.yul\":949:951   */\n      0x20\n        /* \"#utility.yul\":937:946   */\n      dup3\n        /* \"#utility.yul\":928:935   */\n      dup5\n        /* \"#utility.yul\":924:947   */\n      sub\n        /* \"#utility.yul\":920:952   */\n      slt\n        /* \"#utility.yul\":917:1036   */\n      iszero\n      tag_205\n      jumpi\n        /* \"#utility.yul\":955:1034   */\n      tag_206\n      tag_155\n      jump\t// in\n    tag_206:\n        /* \"#utility.yul\":917:1036   */\n    tag_205:\n        /* \"#utility.yul\":1075:1076   */\n      0x00\n        /* \"#utility.yul\":1100:1153   */\n      tag_207\n        /* \"#utility.yul\":1145:1152   */\n      dup5\n        /* \"#utility.yul\":1136:1142   */\n      dup3\n        /* \"#utility.yul\":1125:1134   */\n      dup6\n        /* \"#utility.yul\":1121:1143   */\n      add\n        /* \"#utility.yul\":1100:1153   */\n      tag_160\n      jump\t// in\n    tag_207:\n        /* \"#utility.yul\":1090:1153   */\n      swap2\n      pop\n        /* \"#utility.yul\":1046:1163   */\n      pop\n        /* \"#utility.yul\":841:1170   */\n      swap3\n      swap2\n      pop\n      pop\n      jump\t// out\n        /* \"#utility.yul\":1176:1266   */\n    tag_161:\n        /* \"#utility.yul\":1210:1217   */\n      0x00\n        /* \"#utility.yul\":1253:1258   */\n      dup2\n        /* \"#utility.yul\":1246:1259   */\n      iszero\n        /* \"#utility.yul\":1239:1260   */\n      iszero\n        /* \"#utility.yul\":1228:1260   */\n      swap1\n      pop\n        /* \"#utility.yul\":1176:1266   */\n      swap2\n      swap1\n      pop\n      jump\t// out\n        /* \"#utility.yul\":1272:1381   */\n    tag_162:\n        /* \"#utility.yul\":1353:1374   */\n      tag_210\n        /* \"#utility.yul\":1368:1373   */\n      dup2\n        /* \"#utility.yul\":1353:1374   */\n      tag_161\n      jump\t// in\n    tag_210:\n        /* \"#utility.yul\":1348:1351   */\n      dup3\n        /* \"#utility.yul\":1341:1375   */\n      mstore\n        /* \"#utility.yul\":1272:1381   */\n      pop\n      pop\n      jump\t// out\n        /* \"#utility.yul\":1387:1597   */\n    tag_23:\n        /* \"#utility.yul\":1474:1478   */\n      0x00\n        /* \"#utility.yul\":1512:1514   */\n      0x20\n        /* \"#utility.yul\":1501:1510   */\n      dup3\n        /* \"#utility.yul\":1497:1515   */\n      add\n        /* \"#utility.yul\":1489:1515   */\n      swap1\n      pop\n        /* \"#utility.yul\":1525:1590   */\n      tag_212\n        /* \"#utility.yul\":1587:1588   */\n      0x00\n        /* \"#utility.yul\":1576:1585   */\n      dup4\n        /* \"#utility.yul\":1572:1589   */\n      add\n        /* \"#utility.yul\":1563:1569   */\n      dup5\n        /* \"#utility.yul\":1525:1590   */\n      tag_162\n      jump\t// in\n    tag_212:\n        /* \"#utility.yul\":1387:1597   */\n      swap3\n      swap2\n      pop\n      pop\n      jump\t// out\n        /* \"#utility.yul\":1603:1680   */\n    tag_163:\n        /* \"#utility.yul\":1640:1647   */\n      0x00\n        /* \"#utility.yul\":1669:1674   */\n      dup2\n        /* \"#utility.yul\":1658:1674   */\n      swap1\n      pop\n        /* \"#utility.yul\":1603:1680   */\n      swap2\n      swap1\n      pop\n      jump\t// out\n        /* \"#utility.yul\":1686:1808   */\n    tag_164:\n        /* \"#utility.yul\":1759:1783   */\n      tag_215\n        /* \"#utility.yul\":1777:1782   */\n      dup2\n        /* \"#utility.yul\":1759:1783   */\n      tag_163\n      jump\t// in\n    tag_215:\n        /* \"#utility.yul\":1752:1757   */\n      dup2\n        /* \"#utility.yul\":1749:1784   */\n      eq\n        /* \"#utility.yul\":1739:1802   */\n      tag_216\n      jumpi\n        /* \"#utility.yul\":1798:1799   */\n      0x00\n        /* \"#utility.yul\":1795:1796   */\n      0x00\n        /* \"#utility.yul\":1788:1800   */\n      revert\n        /* \"#utility.yul\":1739:1802   */\n    tag_216:\n        /* \"#utility.yul\":1686:1808   */\n      pop\n      jump\t// out\n        /* \"#utility.yul\":1814:1953   */\n    tag_165:\n        /* \"#utility.yul\":1860:1865   */\n      0x00\n        /* \"#utility.yul\":1898:1904   */\n      dup2\n        /* \"#utility.yul\":1885:1905   */\n      calldataload\n        /* \"#utility.yul\":1876:1905   */\n      swap1\n      pop\n        /* \"#utility.yul\":1914:1947   */\n      tag_218\n        /* \"#utility.yul\":1941:1946   */\n      dup2\n        /* \"#utility.yul\":1914:1947   */\n      tag_164\n      jump\t// in\n    tag_218:\n        /* \"#utility.yul\":1814:1953   */\n      swap3\n      swap2\n      pop\n      pop\n      jump\t// out\n        /* \"#utility.yul\":1959:2288   */\n    tag_26:\n        /* \"#utility.yul\":2018:2024   */\n      0x00\n        /* \"#utility.yul\":2067:2069   */\n      0x20\n        /* \"#utility.yul\":2055:2064   */\n      dup3\n        /* \"#utility.yul\":2046:2053   */\n      dup5\n        /* \"#utility.yul\":2042:2065   */\n      sub\n        /* \"#utility.yul\":2038:2070   */\n      slt\n        /* \"#utility.yul\":2035:2154   */\n      iszero\n      tag_220\n      jumpi\n        /* \"#utility.yul\":2073:2152   */\n      tag_221\n      tag_155\n      jump\t// in\n    tag_221:\n        /* \"#utility.yul\":2035:2154   */\n    tag_220:\n        /* \"#utility.yul\":2193:2194   */\n      0x00\n        /* \"#utility.yul\":2218:2271   */\n      tag_222\n        /* \"#utility.yul\":2263:2270   */\n      dup5\n        /* \"#utility.yul\":2254:2260   */\n      dup3\n        /* \"#utility.yul\":2243:2252   */\n      dup6\n        /* \"#utility.yul\":2239:2261   */\n      add\n        /* \"#utility.yul\":2218:2271   */\n      tag_165\n      jump\t// in\n    tag_222:\n        /* \"#utility.yul\":2208:2271   */\n      swap2\n      pop\n        /* \"#utility.yul\":2164:2281   */\n      pop\n        /* \"#utility.yul\":1959:2288   */\n      swap3\n      swap2\n      pop\n      pop\n      jump\t// out\n        /* \"#utility.yul\":2294:2412   */\n    tag_166:\n        /* \"#utility.yul\":2381:2405   */\n      tag_224\n        /* \"#utility.yul\":2399:2404   */\n      dup2\n        /* \"#utility.yul\":2381:2405   */\n      tag_158\n      jump\t// in\n    tag_224:\n        /* \"#utility.yul\":2376:2379   */\n      dup3\n        /* \"#utility.yul\":2369:2406   */\n      mstore\n        /* \"#utility.yul\":2294:2412   */\n      pop\n      pop\n      jump\t// out\n        /* \"#utility.yul\":2418:2640   */\n    tag_29:\n        /* \"#utility.yul\":2511:2515   */\n      0x00\n        /* \"#utility.yul\":2549:2551   */\n      0x20\n        /* \"#utility.yul\":2538:2547   */\n      dup3\n        /* \"#utility.yul\":2534:2552   */\n      add\n        /* \"#utility.yul\":2526:2552   */\n      swap1\n      pop\n        /* \"#utility.yul\":2562:2633   */\n      tag_226\n        /* \"#utility.yul\":2630:2631   */\n      0x00\n        /* \"#utility.yul\":2619:2628   */\n      dup4\n        /* \"#utility.yul\":2615:2632   */\n      add\n        /* \"#utility.yul\":2606:2612   */\n      dup5\n        /* \"#utility.yul\":2562:2633   */\n      tag_166\n      jump\t// in\n    tag_226:\n        /* \"#utility.yul\":2418:2640   */\n      swap3\n      swap2\n      pop\n      pop\n      jump\t// out\n        /* \"#utility.yul\":2646:2764   */\n    tag_167:\n        /* \"#utility.yul\":2733:2757   */\n      tag_228\n        /* \"#utility.yul\":2751:2756   */\n      dup2\n        /* \"#utility.yul\":2733:2757   */\n      tag_163\n      jump\t// in\n    tag_228:\n        /* \"#utility.yul\":2728:2731   */\n      dup3\n        /* \"#utility.yul\":2721:2758   */\n      mstore\n        /* \"#utility.yul\":2646:2764   */\n      pop\n      pop\n      jump\t// out\n        /* \"#utility.yul\":2770:2992   */\n    tag_33:\n        /* \"#utility.yul\":2863:2867   */\n      0x00\n        /* \"#utility.yul\":2901:2903   */\n      0x20\n        /* \"#utility.yul\":2890:2899   */\n      dup3\n        /* \"#utility.yul\":2886:2904   */\n      add\n        /* \"#utility.yul\":2878:2904   */\n      swap1\n      pop\n        /* \"#utility.yul\":2914:2985   */\n      tag_230\n        /* \"#utility.yul\":2982:2983   */\n      0x00\n        /* \"#utility.yul\":2971:2980   */\n      dup4\n        /* \"#utility.yul\":2967:2984   */\n      add\n        /* \"#utility.yul\":2958:2964   */\n      dup5\n        /* \"#utility.yul\":2914:2985   */\n      tag_167\n      jump\t// in\n    tag_230:\n        /* \"#utility.yul\":2770:2992   */\n      swap3\n      swap2\n      pop\n      pop\n      jump\t// out\n        /* \"#utility.yul\":2998:3112   */\n    tag_168:\n        /* \"#utility.yul\":3065:3071   */\n      0x00\n        /* \"#utility.yul\":3099:3104   */\n      dup2\n        /* \"#utility.yul\":3093:3105   */\n      mload\n        /* \"#utility.yul\":3083:3105   */\n      swap1\n      pop\n        /* \"#utility.yul\":2998:3112   */\n      swap2\n      swap1\n      pop\n      jump\t// out\n        /* \"#utility.yul\":3118:3302   */\n    tag_169:\n        /* \"#utility.yul\":3217:3228   */\n      0x00\n        /* \"#utility.yul\":3251:3257   */\n      dup3\n        /* \"#utility.yul\":3246:3249   */\n      dup3\n        /* \"#utility.yul\":3239:3258   */\n      mstore\n        /* \"#utility.yul\":3291:3295   */\n      0x20\n        /* \"#utility.yul\":3286:3289   */\n      dup3\n        /* \"#utility.yul\":3282:3296   */\n      add\n        /* \"#utility.yul\":3267:3296   */\n      swap1\n      pop\n        /* \"#utility.yul\":3118:3302   */\n      swap3\n      swap2\n      pop\n      pop\n      jump\t// out\n        /* \"#utility.yul\":3308:3440   */\n    tag_170:\n        /* \"#utility.yul\":3375:3379   */\n      0x00\n        /* \"#utility.yul\":3398:3401   */\n      dup2\n        /* \"#utility.yul\":3390:3401   */\n      swap1\n      pop\n        /* \"#utility.yul\":3428:3432   */\n      0x20\n        /* \"#utility.yul\":3423:3426   */\n      dup3\n        /* \"#utility.yul\":3419:3433   */\n      add\n        /* \"#utility.yul\":3411:3433   */\n      swap1\n      pop\n        /* \"#utility.yul\":3308:3440   */\n      swap2\n      swap1\n      pop\n      jump\t// out\n        /* \"#utility.yul\":3446:3554   */\n    tag_171:\n        /* \"#utility.yul\":3523:3547   */\n      tag_235\n        /* \"#utility.yul\":3541:3546   */\n      dup2\n        /* \"#utility.yul\":3523:3547   */\n      tag_158\n      jump\t// in\n    tag_235:\n        /* \"#utility.yul\":3518:3521   */\n      dup3\n        /* \"#utility.yul\":3511:3548   */\n      mstore\n        /* \"#utility.yul\":3446:3554   */\n      pop\n      pop\n      jump\t// out\n        /* \"#utility.yul\":3560:3739   */\n    tag_172:\n        /* \"#utility.yul\":3629:3639   */\n      0x00\n        /* \"#utility.yul\":3650:3696   */\n      tag_237\n        /* \"#utility.yul\":3692:3695   */\n      dup4\n        /* \"#utility.yul\":3684:3690   */\n      dup4\n        /* \"#utility.yul\":3650:3696   */\n      tag_171\n      jump\t// in\n    tag_237:\n        /* \"#utility.yul\":3728:3732   */\n      0x20\n        /* \"#utility.yul\":3723:3726   */\n      dup4\n        /* \"#utility.yul\":3719:3733   */\n      add\n        /* \"#utility.yul\":3705:3733   */\n      swap1\n      pop\n        /* \"#utility.yul\":3560:3739   */\n      swap3\n      swap2\n      pop\n      pop\n      jump\t// out\n        /* \"#utility.yul\":3745:3858   */\n    tag_173:\n        /* \"#utility.yul\":3815:3819   */\n      0x00\n        /* \"#utility.yul\":3847:3851   */\n      0x20\n        /* \"#utility.yul\":3842:3845   */\n      dup3\n        /* \"#utility.yul\":3838:3852   */\n      add\n        /* \"#utility.yul\":3830:3852   */\n      swap1\n      pop\n        /* \"#utility.yul\":3745:3858   */\n      swap2\n      swap1\n      pop\n      jump\t// out\n        /* \"#utility.yul\":3894:4626   */\n    tag_174:\n        /* \"#utility.yul\":4013:4016   */\n      0x00\n        /* \"#utility.yul\":4042:4096   */\n      tag_240\n        /* \"#utility.yul\":4090:4095   */\n      dup3\n        /* \"#utility.yul\":4042:4096   */\n      tag_168\n      jump\t// in\n    tag_240:\n        /* \"#utility.yul\":4112:4198   */\n      tag_241\n        /* \"#utility.yul\":4191:4197   */\n      dup2\n        /* \"#utility.yul\":4186:4189   */\n      dup6\n        /* \"#utility.yul\":4112:4198   */\n      tag_169\n      jump\t// in\n    tag_241:\n        /* \"#utility.yul\":4105:4198   */\n      swap4\n      pop\n        /* \"#utility.yul\":4222:4278   */\n      tag_242\n        /* \"#utility.yul\":4272:4277   */\n      dup4\n        /* \"#utility.yul\":4222:4278   */\n      tag_170\n      jump\t// in\n    tag_242:\n        /* \"#utility.yul\":4301:4308   */\n      dup1\n        /* \"#utility.yul\":4332:4333   */\n      0x00\n        /* \"#utility.yul\":4317:4601   */\n    tag_243:\n        /* \"#utility.yul\":4342:4348   */\n      dup4\n        /* \"#utility.yul\":4339:4340   */\n      dup2\n        /* \"#utility.yul\":4336:4349   */\n      lt\n        /* \"#utility.yul\":4317:4601   */\n      iszero\n      tag_245\n      jumpi\n        /* \"#utility.yul\":4418:4424   */\n      dup2\n        /* \"#utility.yul\":4412:4425   */\n      mload\n        /* \"#utility.yul\":4445:4508   */\n      tag_246\n        /* \"#utility.yul\":4504:4507   */\n      dup9\n        /* \"#utility.yul\":4489:4502   */\n      dup3\n        /* \"#utility.yul\":4445:4508   */\n      tag_172\n      jump\t// in\n    tag_246:\n        /* \"#utility.yul\":4438:4508   */\n      swap8\n      pop\n        /* \"#utility.yul\":4531:4591   */\n      tag_247\n        /* \"#utility.yul\":4584:4590   */\n      dup4\n        /* \"#utility.yul\":4531:4591   */\n      tag_173\n      jump\t// in\n    tag_247:\n        /* \"#utility.yul\":4521:4591   */\n      swap3\n      pop\n        /* \"#utility.yul\":4377:4601   */\n      pop\n        /* \"#utility.yul\":4364:4365   */\n      0x01\n        /* \"#utility.yul\":4361:4362   */\n      dup2\n        /* \"#utility.yul\":4357:4366   */\n      add\n        /* \"#utility.yul\":4352:4366   */\n      swap1\n      pop\n        /* \"#utility.yul\":4317:4601   */\n      jump(tag_243)\n    tag_245:\n        /* \"#utility.yul\":4321:4335   */\n      pop\n        /* \"#utility.yul\":4617:4620   */\n      dup6\n        /* \"#utility.yul\":4610:4620   */\n      swap4\n      pop\n        /* \"#utility.yul\":4018:4626   */\n      pop\n      pop\n      pop\n        /* \"#utility.yul\":3894:4626   */\n      swap3\n      swap2\n      pop\n      pop\n      jump\t// out\n        /* \"#utility.yul\":4632:5005   */\n    tag_37:\n        /* \"#utility.yul\":4775:4779   */\n      0x00\n        /* \"#utility.yul\":4813:4815   */\n      0x20\n        /* \"#utility.yul\":4802:4811   */\n      dup3\n        /* \"#utility.yul\":4798:4816   */\n      add\n        /* \"#utility.yul\":4790:4816   */\n      swap1\n      pop\n        /* \"#utility.yul\":4862:4871   */\n      dup2\n        /* \"#utility.yul\":4856:4860   */\n      dup2\n        /* \"#utility.yul\":4852:4872   */\n      sub\n        /* \"#utility.yul\":4848:4849   */\n      0x00\n        /* \"#utility.yul\":4837:4846   */\n      dup4\n        /* \"#utility.yul\":4833:4850   */\n      add\n        /* \"#utility.yul\":4826:4873   */\n      mstore\n        /* \"#utility.yul\":4890:4998   */\n      tag_249\n        /* \"#utility.yul\":4993:4997   */\n      dup2\n        /* \"#utility.yul\":4984:4990   */\n      dup5\n        /* \"#utility.yul\":4890:4998   */\n      tag_174\n      jump\t// in\n    tag_249:\n        /* \"#utility.yul\":4882:4998   */\n      swap1\n      pop\n        /* \"#utility.yul\":4632:5005   */\n      swap3\n      swap2\n      pop\n      pop\n      jump\t// out\n        /* \"#utility.yul\":5011:5071   */\n    tag_175:\n        /* \"#utility.yul\":5039:5042   */\n      0x00\n        /* \"#utility.yul\":5060:5065   */\n      dup2\n        /* \"#utility.yul\":5053:5065   */\n      swap1\n      pop\n        /* \"#utility.yul\":5011:5071   */\n      swap2\n      swap1\n      pop\n      jump\t// out\n        /* \"#utility.yul\":5077:5219   */\n    tag_176:\n        /* \"#utility.yul\":5127:5136   */\n      0x00\n        /* \"#utility.yul\":5160:5213   */\n      tag_252\n        /* \"#utility.yul\":5178:5212   */\n      tag_253\n        /* \"#utility.yul\":5187:5211   */\n      tag_254\n        /* \"#utility.yul\":5205:5210   */\n      dup5\n        /* \"#utility.yul\":5187:5211   */\n      tag_157\n      jump\t// in\n    tag_254:\n        /* \"#utility.yul\":5178:5212   */\n      tag_175\n      jump\t// in\n    tag_253:\n        /* \"#utility.yul\":5160:5213   */\n      tag_157\n      jump\t// in\n    tag_252:\n        /* \"#utility.yul\":5147:5213   */\n      swap1\n      pop\n        /* \"#utility.yul\":5077:5219   */\n      swap2\n      swap1\n      pop\n      jump\t// out\n        /* \"#utility.yul\":5225:5351   */\n    tag_177:\n        /* \"#utility.yul\":5275:5284   */\n      0x00\n        /* \"#utility.yul\":5308:5345   */\n      tag_256\n        /* \"#utility.yul\":5339:5344   */\n      dup3\n        /* \"#utility.yul\":5308:5345   */\n      tag_176\n      jump\t// in\n    tag_256:\n        /* \"#utility.yul\":5295:5345   */\n      swap1\n      pop\n        /* \"#utility.yul\":5225:5351   */\n      swap2\n      swap1\n      pop\n      jump\t// out\n        /* \"#utility.yul\":5357:5497   */\n    tag_178:\n        /* \"#utility.yul\":5421:5430   */\n      0x00\n        /* \"#utility.yul\":5454:5491   */\n      tag_258\n        /* \"#utility.yul\":5485:5490   */\n      dup3\n        /* \"#utility.yul\":5454:5491   */\n      tag_177\n      jump\t// in\n    tag_258:\n        /* \"#utility.yul\":5441:5491   */\n      swap1\n      pop\n        /* \"#utility.yul\":5357:5497   */\n      swap2\n      swap1\n      pop\n      jump\t// out\n        /* \"#utility.yul\":5503:5662   */\n    tag_179:\n        /* \"#utility.yul\":5604:5655   */\n      tag_260\n        /* \"#utility.yul\":5649:5654   */\n      dup2\n        /* \"#utility.yul\":5604:5655   */\n      tag_178\n      jump\t// in\n    tag_260:\n        /* \"#utility.yul\":5599:5602   */\n      dup3\n        /* \"#utility.yul\":5592:5656   */\n      mstore\n        /* \"#utility.yul\":5503:5662   */\n      pop\n      pop\n      jump\t// out\n        /* \"#utility.yul\":5668:5918   */\n    tag_51:\n        /* \"#utility.yul\":5775:5779   */\n      0x00\n        /* \"#utility.yul\":5813:5815   */\n      0x20\n        /* \"#utility.yul\":5802:5811   */\n      dup3\n        /* \"#utility.yul\":5798:5816   */\n      add\n        /* \"#utility.yul\":5790:5816   */\n      swap1\n      pop\n        /* \"#utility.yul\":5826:5911   */\n      tag_262\n        /* \"#utility.yul\":5908:5909   */\n      0x00\n        /* \"#utility.yul\":5897:5906   */\n      dup4\n        /* \"#utility.yul\":5893:5910   */\n      add\n        /* \"#utility.yul\":5884:5890   */\n      dup5\n        /* \"#utility.yul\":5826:5911   */\n      tag_179\n      jump\t// in\n    tag_262:\n        /* \"#utility.yul\":5668:5918   */\n      swap3\n      swap2\n      pop\n      pop\n      jump\t// out\n        /* \"#utility.yul\":5924:6104   */\n    tag_180:\n        /* \"#utility.yul\":5972:6049   */\n      0x4e487b7100000000000000000000000000000000000000000000000000000000\n        /* \"#utility.yul\":5969:5970   */\n      0x00\n        /* \"#utility.yul\":5962:6050   */\n      mstore\n        /* \"#utility.yul\":6069:6073   */\n      0x11\n        /* \"#utility.yul\":6066:6067   */\n      0x04\n        /* \"#utility.yul\":6059:6074   */\n      mstore\n        /* \"#utility.yul\":6093:6097   */\n      0x24\n        /* \"#utility.yul\":6090:6091   */\n      0x00\n        /* \"#utility.yul\":6083:6098   */\n      revert\n        /* \"#utility.yul\":6110:6301   */\n    tag_75:\n        /* \"#utility.yul\":6150:6153   */\n      0x00\n        /* \"#utility.yul\":6169:6189   */\n      tag_265\n        /* \"#utility.yul\":6187:6188   */\n      dup3\n        /* \"#utility.yul\":6169:6189   */\n      tag_163\n      jump\t// in\n    tag_265:\n        /* \"#utility.yul\":6164:6189   */\n      swap2\n      pop\n        /* \"#utility.yul\":6203:6223   */\n      tag_266\n        /* \"#utility.yul\":6221:6222   */\n      dup4\n        /* \"#utility.yul\":6203:6223   */\n      tag_163\n      jump\t// in\n    tag_266:\n        /* \"#utility.yul\":6198:6223   */\n      swap3\n      pop\n        /* \"#utility.yul\":6246:6247   */\n      dup3\n        /* \"#utility.yul\":6243:6244   */\n      dup3\n        /* \"#utility.yul\":6239:6248   */\n      add\n        /* \"#utility.yul\":6232:6248   */\n      swap1\n      pop\n        /* \"#utility.yul\":6267:6270   */\n      dup1\n        /* \"#utility.yul\":6264:6265   */\n      dup3\n        /* \"#utility.yul\":6261:6271   */\n      gt\n        /* \"#utility.yul\":6258:6294   */\n      iszero\n      tag_267\n      jumpi\n        /* \"#utility.yul\":6274:6292   */\n      tag_268\n      tag_180\n      jump\t// in\n    tag_268:\n        /* \"#utility.yul\":6258:6294   */\n    tag_267:\n        /* \"#utility.yul\":6110:6301   */\n      swap3\n      swap2\n      pop\n      pop\n      jump\t// out\n        /* \"#utility.yul\":6307:6476   */\n    tag_181:\n        /* \"#utility.yul\":6391:6402   */\n      0x00\n        /* \"#utility.yul\":6425:6431   */\n      dup3\n        /* \"#utility.yul\":6420:6423   */\n      dup3\n        /* \"#utility.yul\":6413:6432   */\n      mstore\n        /* \"#utility.yul\":6465:6469   */\n      0x20\n        /* \"#utility.yul\":6460:6463   */\n      dup3\n        /* \"#utility.yul\":6456:6470   */\n      add\n        /* \"#utility.yul\":6441:6470   */\n      swap1\n      pop\n        /* \"#utility.yul\":6307:6476   */\n      swap3\n      swap2\n      pop\n      pop\n      jump\t// out\n        /* \"#utility.yul\":6482:6659   */\n    tag_182:\n        /* \"#utility.yul\":6622:6651   */\n      0x4465626573206573706572617220616c2066696e206465206d65730000000000\n        /* \"#utility.yul\":6618:6619   */\n      0x00\n        /* \"#utility.yul\":6610:6616   */\n      dup3\n        /* \"#utility.yul\":6606:6620   */\n      add\n        /* \"#utility.yul\":6599:6652   */\n      mstore\n        /* \"#utility.yul\":6482:6659   */\n      pop\n      jump\t// out\n        /* \"#utility.yul\":6665:7031   */\n    tag_183:\n        /* \"#utility.yul\":6807:6810   */\n      0x00\n        /* \"#utility.yul\":6828:6895   */\n      tag_272\n        /* \"#utility.yul\":6892:6894   */\n      0x1b\n        /* \"#utility.yul\":6887:6890   */\n      dup4\n        /* \"#utility.yul\":6828:6895   */\n      tag_181\n      jump\t// in\n    tag_272:\n        /* \"#utility.yul\":6821:6895   */\n      swap2\n      pop\n        /* \"#utility.yul\":6904:6997   */\n      tag_273\n        /* \"#utility.yul\":6993:6996   */\n      dup3\n        /* \"#utility.yul\":6904:6997   */\n      tag_182\n      jump\t// in\n    tag_273:\n        /* \"#utility.yul\":7022:7024   */\n      0x20\n        /* \"#utility.yul\":7017:7020   */\n      dup3\n        /* \"#utility.yul\":7013:7025   */\n      add\n        /* \"#utility.yul\":7006:7025   */\n      swap1\n      pop\n        /* \"#utility.yul\":6665:7031   */\n      swap2\n      swap1\n      pop\n      jump\t// out\n        /* \"#utility.yul\":7037:7456   */\n    tag_78:\n        /* \"#utility.yul\":7203:7207   */\n      0x00\n        /* \"#utility.yul\":7241:7243   */\n      0x20\n        /* \"#utility.yul\":7230:7239   */\n      dup3\n        /* \"#utility.yul\":7226:7244   */\n      add\n        /* \"#utility.yul\":7218:7244   */\n      swap1\n      pop\n        /* \"#utility.yul\":7290:7299   */\n      dup2\n        /* \"#utility.yul\":7284:7288   */\n      dup2\n        /* \"#utility.yul\":7280:7300   */\n      sub\n        /* \"#utility.yul\":7276:7277   */\n      0x00\n        /* \"#utility.yul\":7265:7274   */\n      dup4\n        /* \"#utility.yul\":7261:7278   */\n      add\n        /* \"#utility.yul\":7254:7301   */\n      mstore\n        /* \"#utility.yul\":7318:7449   */\n      tag_275\n        /* \"#utility.yul\":7444:7448   */\n      dup2\n        /* \"#utility.yul\":7318:7449   */\n      tag_183\n      jump\t// in\n    tag_275:\n        /* \"#utility.yul\":7310:7449   */\n      swap1\n      pop\n        /* \"#utility.yul\":7037:7456   */\n      swap2\n      swap1\n      pop\n      jump\t// out\n        /* \"#utility.yul\":7462:7638   */\n    tag_184:\n        /* \"#utility.yul\":7602:7630   */\n      0x4e6f206861792076697369746173207265676973747261646173000000000000\n        /* \"#utility.yul\":7598:7599   */\n      0x00\n        /* \"#utility.yul\":7590:7596   */\n      dup3\n        /* \"#utility.yul\":7586:7600   */\n      add\n        /* \"#utility.yul\":7579:7631   */\n      mstore\n        /* \"#utility.yul\":7462:7638   */\n      pop\n      jump\t// out\n        /* \"#utility.yul\":7644:8010   */\n    tag_185:\n        /* \"#utility.yul\":7786:7789   */\n      0x00\n        /* \"#utility.yul\":7807:7874   */\n      tag_278\n        /* \"#utility.yul\":7871:7873   */\n      0x1a\n        /* \"#utility.yul\":7866:7869   */\n      dup4\n        /* \"#utility.yul\":7807:7874   */\n      tag_181\n      jump\t// in\n    tag_278:\n        /* \"#utility.yul\":7800:7874   */\n      swap2\n      pop\n        /* \"#utility.yul\":7883:7976   */\n      tag_279\n        /* \"#utility.yul\":7972:7975   */\n      dup3\n        /* \"#utility.yul\":7883:7976   */\n      tag_184\n      jump\t// in\n    tag_279:\n        /* \"#utility.yul\":8001:8003   */\n      0x20\n        /* \"#utility.yul\":7996:7999   */\n      dup3\n        /* \"#utility.yul\":7992:8004   */\n      add\n        /* \"#utility.yul\":7985:8004   */\n      swap1\n      pop\n        /* \"#utility.yul\":7644:8010   */\n      swap2\n      swap1\n      pop\n      jump\t// out\n        /* \"#utility.yul\":8016:8435   */\n    tag_81:\n        /* \"#utility.yul\":8182:8186   */\n      0x00\n        /* \"#utility.yul\":8220:8222   */\n      0x20\n        /* \"#utility.yul\":8209:8218   */\n      dup3\n        /* \"#utility.yul\":8205:8223   */\n      add\n        /* \"#utility.yul\":8197:8223   */\n      swap1\n      pop\n        /* \"#utility.yul\":8269:8278   */\n      dup2\n        /* \"#utility.yul\":8263:8267   */\n      dup2\n        /* \"#utility.yul\":8259:8279   */\n      sub\n        /* \"#utility.yul\":8255:8256   */\n      0x00\n        /* \"#utility.yul\":8244:8253   */\n      dup4\n        /* \"#utility.yul\":8240:8257   */\n      add\n        /* \"#utility.yul\":8233:8280   */\n      mstore\n        /* \"#utility.yul\":8297:8428   */\n      tag_281\n        /* \"#utility.yul\":8423:8427   */\n      dup2\n        /* \"#utility.yul\":8297:8428   */\n      tag_185\n      jump\t// in\n    tag_281:\n        /* \"#utility.yul\":8289:8428   */\n      swap1\n      pop\n        /* \"#utility.yul\":8016:8435   */\n      swap2\n      swap1\n      pop\n      jump\t// out\n        /* \"#utility.yul\":8441:8584   */\n    tag_186:\n        /* \"#utility.yul\":8498:8503   */\n      0x00\n        /* \"#utility.yul\":8529:8535   */\n      dup2\n        /* \"#utility.yul\":8523:8536   */\n      mload\n        /* \"#utility.yul\":8514:8536   */\n      swap1\n      pop\n        /* \"#utility.yul\":8545:8578   */\n      tag_283\n        /* \"#utility.yul\":8572:8577   */\n      dup2\n        /* \"#utility.yul\":8545:8578   */\n      tag_164\n      jump\t// in\n    tag_283:\n        /* \"#utility.yul\":8441:8584   */\n      swap3\n      swap2\n      pop\n      pop\n      jump\t// out\n        /* \"#utility.yul\":8590:8941   */\n    tag_86:\n        /* \"#utility.yul\":8660:8666   */\n      0x00\n        /* \"#utility.yul\":8709:8711   */\n      0x20\n        /* \"#utility.yul\":8697:8706   */\n      dup3\n        /* \"#utility.yul\":8688:8695   */\n      dup5\n        /* \"#utility.yul\":8684:8707   */\n      sub\n        /* \"#utility.yul\":8680:8712   */\n      slt\n        /* \"#utility.yul\":8677:8796   */\n      iszero\n      tag_285\n      jumpi\n        /* \"#utility.yul\":8715:8794   */\n      tag_286\n      tag_155\n      jump\t// in\n    tag_286:\n        /* \"#utility.yul\":8677:8796   */\n    tag_285:\n        /* \"#utility.yul\":8835:8836   */\n      0x00\n        /* \"#utility.yul\":8860:8924   */\n      tag_287\n        /* \"#utility.yul\":8916:8923   */\n      dup5\n        /* \"#utility.yul\":8907:8913   */\n      dup3\n        /* \"#utility.yul\":8896:8905   */\n      dup6\n        /* \"#utility.yul\":8892:8914   */\n      add\n        /* \"#utility.yul\":8860:8924   */\n      tag_186\n      jump\t// in\n    tag_287:\n        /* \"#utility.yul\":8850:8924   */\n      swap2\n      pop\n        /* \"#utility.yul\":8806:8934   */\n      pop\n        /* \"#utility.yul\":8590:8941   */\n      swap3\n      swap2\n      pop\n      pop\n      jump\t// out\n        /* \"#utility.yul\":8947:9127   */\n    tag_92:\n        /* \"#utility.yul\":8995:9072   */\n      0x4e487b7100000000000000000000000000000000000000000000000000000000\n        /* \"#utility.yul\":8992:8993   */\n      0x00\n        /* \"#utility.yul\":8985:9073   */\n      mstore\n        /* \"#utility.yul\":9092:9096   */\n      0x32\n        /* \"#utility.yul\":9089:9090   */\n      0x04\n        /* \"#utility.yul\":9082:9097   */\n      mstore\n        /* \"#utility.yul\":9116:9120   */\n      0x24\n        /* \"#utility.yul\":9113:9114   */\n      0x00\n        /* \"#utility.yul\":9106:9121   */\n      revert\n        /* \"#utility.yul\":9133:9543   */\n    tag_96:\n        /* \"#utility.yul\":9173:9180   */\n      0x00\n        /* \"#utility.yul\":9196:9216   */\n      tag_290\n        /* \"#utility.yul\":9214:9215   */\n      dup3\n        /* \"#utility.yul\":9196:9216   */\n      tag_163\n      jump\t// in\n    tag_290:\n        /* \"#utility.yul\":9191:9216   */\n      swap2\n      pop\n        /* \"#utility.yul\":9230:9250   */\n      tag_291\n        /* \"#utility.yul\":9248:9249   */\n      dup4\n        /* \"#utility.yul\":9230:9250   */\n      tag_163\n      jump\t// in\n    tag_291:\n        /* \"#utility.yul\":9225:9250   */\n      swap3\n      pop\n        /* \"#utility.yul\":9285:9286   */\n      dup3\n        /* \"#utility.yul\":9282:9283   */\n      dup3\n        /* \"#utility.yul\":9278:9287   */\n      mul\n        /* \"#utility.yul\":9307:9337   */\n      tag_292\n        /* \"#utility.yul\":9325:9336   */\n      dup2\n        /* \"#utility.yul\":9307:9337   */\n      tag_163\n      jump\t// in\n    tag_292:\n        /* \"#utility.yul\":9296:9337   */\n      swap2\n      pop\n        /* \"#utility.yul\":9486:9487   */\n      dup3\n        /* \"#utility.yul\":9477:9484   */\n      dup3\n        /* \"#utility.yul\":9473:9488   */\n      div\n        /* \"#utility.yul\":9470:9471   */\n      dup5\n        /* \"#utility.yul\":9467:9489   */\n      eq\n        /* \"#utility.yul\":9447:9448   */\n      dup4\n        /* \"#utility.yul\":9440:9449   */\n      iszero\n        /* \"#utility.yul\":9420:9503   */\n      or\n        /* \"#utility.yul\":9397:9536   */\n      tag_293\n      jumpi\n        /* \"#utility.yul\":9516:9534   */\n      tag_294\n      tag_180\n      jump\t// in\n    tag_294:\n        /* \"#utility.yul\":9397:9536   */\n    tag_293:\n        /* \"#utility.yul\":9181:9543   */\n      pop\n        /* \"#utility.yul\":9133:9543   */\n      swap3\n      swap2\n      pop\n      pop\n      jump\t// out\n        /* \"#utility.yul\":9549:9729   */\n    tag_187:\n        /* \"#utility.yul\":9597:9674   */\n      0x4e487b7100000000000000000000000000000000000000000000000000000000\n        /* \"#utility.yul\":9594:9595   */\n      0x00\n        /* \"#utility.yul\":9587:9675   */\n      mstore\n        /* \"#utility.yul\":9694:9698   */\n      0x12\n        /* \"#utility.yul\":9691:9692   */\n      0x04\n        /* \"#utility.yul\":9684:9699   */\n      mstore\n        /* \"#utility.yul\":9718:9722   */\n      0x24\n        /* \"#utility.yul\":9715:9716   */\n      0x00\n        /* \"#utility.yul\":9708:9723   */\n      revert\n        /* \"#utility.yul\":9735:9920   */\n    tag_98:\n        /* \"#utility.yul\":9775:9776   */\n      0x00\n        /* \"#utility.yul\":9792:9812   */\n      tag_297\n        /* \"#utility.yul\":9810:9811   */\n      dup3\n        /* \"#utility.yul\":9792:9812   */\n      tag_163\n      jump\t// in\n    tag_297:\n        /* \"#utility.yul\":9787:9812   */\n      swap2\n      pop\n        /* \"#utility.yul\":9826:9846   */\n      tag_298\n        /* \"#utility.yul\":9844:9845   */\n      dup4\n        /* \"#utility.yul\":9826:9846   */\n      tag_163\n      jump\t// in\n    tag_298:\n        /* \"#utility.yul\":9821:9846   */\n      swap3\n      pop\n        /* \"#utility.yul\":9865:9866   */\n      dup3\n        /* \"#utility.yul\":9855:9890   */\n      tag_299\n      jumpi\n        /* \"#utility.yul\":9870:9888   */\n      tag_300\n      tag_187\n      jump\t// in\n    tag_300:\n        /* \"#utility.yul\":9855:9890   */\n    tag_299:\n        /* \"#utility.yul\":9912:9913   */\n      dup3\n        /* \"#utility.yul\":9909:9910   */\n      dup3\n        /* \"#utility.yul\":9905:9914   */\n      div\n        /* \"#utility.yul\":9900:9914   */\n      swap1\n      pop\n        /* \"#utility.yul\":9735:9920   */\n      swap3\n      swap2\n      pop\n      pop\n      jump\t// out\n        /* \"#utility.yul\":9926:10258   */\n    tag_101:\n        /* \"#utility.yul\":10047:10051   */\n      0x00\n        /* \"#utility.yul\":10085:10087   */\n      0x40\n        /* \"#utility.yul\":10074:10083   */\n      dup3\n        /* \"#utility.yul\":10070:10088   */\n      add\n        /* \"#utility.yul\":10062:10088   */\n      swap1\n      pop\n        /* \"#utility.yul\":10098:10169   */\n      tag_302\n        /* \"#utility.yul\":10166:10167   */\n      0x00\n        /* \"#utility.yul\":10155:10164   */\n      dup4\n        /* \"#utility.yul\":10151:10168   */\n      add\n        /* \"#utility.yul\":10142:10148   */\n      dup6\n        /* \"#utility.yul\":10098:10169   */\n      tag_166\n      jump\t// in\n    tag_302:\n        /* \"#utility.yul\":10179:10251   */\n      tag_303\n        /* \"#utility.yul\":10247:10249   */\n      0x20\n        /* \"#utility.yul\":10236:10245   */\n      dup4\n        /* \"#utility.yul\":10232:10250   */\n      add\n        /* \"#utility.yul\":10223:10229   */\n      dup5\n        /* \"#utility.yul\":10179:10251   */\n      tag_167\n      jump\t// in\n    tag_303:\n        /* \"#utility.yul\":9926:10258   */\n      swap4\n      swap3\n      pop\n      pop\n      pop\n      jump\t// out\n        /* \"#utility.yul\":10264:10380   */\n    tag_188:\n        /* \"#utility.yul\":10334:10355   */\n      tag_305\n        /* \"#utility.yul\":10349:10354   */\n      dup2\n        /* \"#utility.yul\":10334:10355   */\n      tag_161\n      jump\t// in\n    tag_305:\n        /* \"#utility.yul\":10327:10332   */\n      dup2\n        /* \"#utility.yul\":10324:10356   */\n      eq\n        /* \"#utility.yul\":10314:10374   */\n      tag_306\n      jumpi\n        /* \"#utility.yul\":10370:10371   */\n      0x00\n        /* \"#utility.yul\":10367:10368   */\n      0x00\n        /* \"#utility.yul\":10360:10372   */\n      revert\n        /* \"#utility.yul\":10314:10374   */\n    tag_306:\n        /* \"#utility.yul\":10264:10380   */\n      pop\n      jump\t// out\n        /* \"#utility.yul\":10386:10523   */\n    tag_189:\n        /* \"#utility.yul\":10440:10445   */\n      0x00\n        /* \"#utility.yul\":10471:10477   */\n      dup2\n        /* \"#utility.yul\":10465:10478   */\n      mload\n        /* \"#utility.yul\":10456:10478   */\n      swap1\n      pop\n        /* \"#utility.yul\":10487:10517   */\n      tag_308\n        /* \"#utility.yul\":10511:10516   */\n      dup2\n        /* \"#utility.yul\":10487:10517   */\n      tag_188\n      jump\t// in\n    tag_308:\n        /* \"#utility.yul\":10386:10523   */\n      swap3\n      swap2\n      pop\n      pop\n      jump\t// out\n        /* \"#utility.yul\":10529:10874   */\n    tag_105:\n        /* \"#utility.yul\":10596:10602   */\n      0x00\n        /* \"#utility.yul\":10645:10647   */\n      0x20\n        /* \"#utility.yul\":10633:10642   */\n      dup3\n        /* \"#utility.yul\":10624:10631   */\n      dup5\n        /* \"#utility.yul\":10620:10643   */\n      sub\n        /* \"#utility.yul\":10616:10648   */\n      slt\n        /* \"#utility.yul\":10613:10732   */\n      iszero\n      tag_310\n      jumpi\n        /* \"#utility.yul\":10651:10730   */\n      tag_311\n      tag_155\n      jump\t// in\n    tag_311:\n        /* \"#utility.yul\":10613:10732   */\n    tag_310:\n        /* \"#utility.yul\":10771:10772   */\n      0x00\n        /* \"#utility.yul\":10796:10857   */\n      tag_312\n        /* \"#utility.yul\":10849:10856   */\n      dup5\n        /* \"#utility.yul\":10840:10846   */\n      dup3\n        /* \"#utility.yul\":10829:10838   */\n      dup6\n        /* \"#utility.yul\":10825:10847   */\n      add\n        /* \"#utility.yul\":10796:10857   */\n      tag_189\n      jump\t// in\n    tag_312:\n        /* \"#utility.yul\":10786:10857   */\n      swap2\n      pop\n        /* \"#utility.yul\":10742:10867   */\n      pop\n        /* \"#utility.yul\":10529:10874   */\n      swap3\n      swap2\n      pop\n      pop\n      jump\t// out\n        /* \"#utility.yul\":10880:11113   */\n    tag_121:\n        /* \"#utility.yul\":10919:10922   */\n      0x00\n        /* \"#utility.yul\":10942:10966   */\n      tag_314\n        /* \"#utility.yul\":10960:10965   */\n      dup3\n        /* \"#utility.yul\":10942:10966   */\n      tag_163\n      jump\t// in\n    tag_314:\n        /* \"#utility.yul\":10933:10966   */\n      swap2\n      pop\n        /* \"#utility.yul\":10988:11054   */\n      0xffffffffffffffffffffffffffffffffffffffffffffffffffffffffffffffff\n        /* \"#utility.yul\":10981:10986   */\n      dup3\n        /* \"#utility.yul\":10978:11055   */\n      sub\n        /* \"#utility.yul\":10975:11078   */\n      tag_315\n      jumpi\n        /* \"#utility.yul\":11058:11076   */\n      tag_316\n      tag_180\n      jump\t// in\n    tag_316:\n        /* \"#utility.yul\":10975:11078   */\n    tag_315:\n        /* \"#utility.yul\":11105:11106   */\n      0x01\n        /* \"#utility.yul\":11098:11103   */\n      dup3\n        /* \"#utility.yul\":11094:11107   */\n      add\n        /* \"#utility.yul\":11087:11107   */\n      swap1\n      pop\n        /* \"#utility.yul\":10880:11113   */\n      swap2\n      swap1\n      pop\n      jump\t// out\n        /* \"#utility.yul\":11119:11287   */\n    tag_190:\n        /* \"#utility.yul\":11259:11279   */\n      0x416d6f756e74206d757374206265203e20300000000000000000000000000000\n        /* \"#utility.yul\":11255:11256   */\n      0x00\n        /* \"#utility.yul\":11247:11253   */\n      dup3\n        /* \"#utility.yul\":11243:11257   */\n      add\n        /* \"#utility.yul\":11236:11280   */\n      mstore\n        /* \"#utility.yul\":11119:11287   */\n      pop\n      jump\t// out\n        /* \"#utility.yul\":11293:11659   */\n    tag_191:\n        /* \"#utility.yul\":11435:11438   */\n      0x00\n        /* \"#utility.yul\":11456:11523   */\n      tag_319\n        /* \"#utility.yul\":11520:11522   */\n      0x12\n        /* \"#utility.yul\":11515:11518   */\n      dup4\n        /* \"#utility.yul\":11456:11523   */\n      tag_181\n      jump\t// in\n    tag_319:\n        /* \"#utility.yul\":11449:11523   */\n      swap2\n      pop\n        /* \"#utility.yul\":11532:11625   */\n      tag_320\n        /* \"#utility.yul\":11621:11624   */\n      dup3\n        /* \"#utility.yul\":11532:11625   */\n      tag_190\n      jump\t// in\n    tag_320:\n        /* \"#utility.yul\":11650:11652   */\n      0x20\n        /* \"#utility.yul\":11645:11648   */\n      dup3\n        /* \"#utility.yul\":11641:11653   */\n      add\n        /* \"#utility.yul\":11634:11653   */\n      swap1\n      pop\n        /* \"#utility.yul\":11293:11659   */\n      swap2\n      swap1\n      pop\n      jump\t// out\n        /* \"#utility.yul\":11665:12084   */\n    tag_127:\n        /* \"#utility.yul\":11831:11835   */\n      0x00\n        /* \"#utility.yul\":11869:11871   */\n      0x20\n        /* \"#utility.yul\":11858:11867   */\n      dup3\n        /* \"#utility.yul\":11854:11872   */\n      add\n        /* \"#utility.yul\":11846:11872   */\n      swap1\n      pop\n        /* \"#utility.yul\":11918:11927   */\n      dup2\n        /* \"#utility.yul\":11912:11916   */\n      dup2\n        /* \"#utility.yul\":11908:11928   */\n      sub\n        /* \"#utility.yul\":11904:11905   */\n      0x00\n        /* \"#utility.yul\":11893:11902   */\n      dup4\n        /* \"#utility.yul\":11889:11906   */\n      add\n        /* \"#utility.yul\":11882:11929   */\n      mstore\n        /* \"#utility.yul\":11946:12077   */\n      tag_322\n        /* \"#utility.yul\":12072:12076   */\n      dup2\n        /* \"#utility.yul\":11946:12077   */\n      tag_191\n      jump\t// in\n    tag_322:\n        /* \"#utility.yul\":11938:12077   */\n      swap1\n      pop\n        /* \"#utility.yul\":11665:12084   */\n      swap2\n      swap1\n      pop\n      jump\t// out\n        /* \"#utility.yul\":12090:12532   */\n    tag_129:\n        /* \"#utility.yul\":12239:12243   */\n      0x00\n        /* \"#utility.yul\":12277:12279   */\n      0x60\n        /* \"#utility.yul\":12266:12275   */\n      dup3\n        /* \"#utility.yul\":12262:12280   */\n      add\n        /* \"#utility.yul\":12254:12280   */\n      swap1\n      pop\n        /* \"#utility.yul\":12290:12361   */\n      tag_324\n        /* \"#utility.yul\":12358:12359   */\n      0x00\n        /* \"#utility.yul\":12347:12356   */\n      dup4\n        /* \"#utility.yul\":12343:12360   */\n      add\n        /* \"#utility.yul\":12334:12340   */\n      dup7\n        /* \"#utility.yul\":12290:12361   */\n      tag_166\n      jump\t// in\n    tag_324:\n        /* \"#utility.yul\":12371:12443   */\n      tag_325\n        /* \"#utility.yul\":12439:12441   */\n      0x20\n        /* \"#utility.yul\":12428:12437   */\n      dup4\n        /* \"#utility.yul\":12424:12442   */\n      add\n        /* \"#utility.yul\":12415:12421   */\n      dup6\n        /* \"#utility.yul\":12371:12443   */\n      tag_166\n      jump\t// in\n    tag_325:\n        /* \"#utility.yul\":12453:12525   */\n      tag_326\n        /* \"#utility.yul\":12521:12523   */\n      0x40\n        /* \"#utility.yul\":12510:12519   */\n      dup4\n        /* \"#utility.yul\":12506:12524   */\n      add\n        /* \"#utility.yul\":12497:12503   */\n      dup5\n        /* \"#utility.yul\":12453:12525   */\n      tag_167\n      jump\t// in\n    tag_326:\n        /* \"#utility.yul\":12090:12532   */\n      swap5\n      swap4\n      pop\n      pop\n      pop\n      pop\n      jump\t// out\n\n    auxdata: 0xa2646970667358221220d4e5a282514fc65893cc2bd20cdae35f85845d6dba649a1a7f52142bc4bc533164736f6c634300081e0033\n}\n",
				"bytecode": {
					"linkReferences": {},
					"object": "608060405234801561000f575f5ffd5b5060405161156a38038061156a8339818101604052810190610031919061021f565b805f73ffffffffffffffffffffffffffffffffffffffff168173ffffffffffffffffffffffffffffffffffffffff16036100a2575f6040517f1e4fbdf7000000000000000000000000000000000000000000000000000000008152600401610099919061026c565b60405180910390fd5b6100b18161010060201b60201c565b508160015f6101000a81548173ffffffffffffffffffffffffffffffffffffffff021916908373ffffffffffffffffffffffffffffffffffffffff160217905550426002819055505050610285565b5f5f5f9054906101000a900473ffffffffffffffffffffffffffffffffffffffff169050815f5f6101000a81548173ffffffffffffffffffffffffffffffffffffffff021916908373ffffffffffffffffffffffffffffffffffffffff1602179055508173ffffffffffffffffffffffffffffffffffffffff168173ffffffffffffffffffffffffffffffffffffffff167f8be0079c531659141344cd1fd0a4f28419497f9722a3daafe3b4186f6b6457e060405160405180910390a35050565b5f5ffd5b5f73ffffffffffffffffffffffffffffffffffffffff82169050919050565b5f6101ee826101c5565b9050919050565b6101fe816101e4565b8114610208575f5ffd5b50565b5f81519050610219816101f5565b92915050565b5f5f60408385031215610235576102346101c1565b5b5f6102428582860161020b565b92505060206102538582860161020b565b9150509250929050565b610266816101e4565b82525050565b5f60208201905061027f5f83018461025d565b92915050565b6112d8806102925f395ff3fe608060405234801561000f575f5ffd5b50600436106100cd575f3560e01c80638da5cb5b1161008a578063c91538a911610064578063c91538a9146101db578063cc2bc153146101f7578063da3a5f7214610227578063f2fde38b14610243576100cd565b80638da5cb5b14610181578063a717639c1461019f578063b43b0f4f146101bd576100cd565b80631f5bdf5d146100d157806335c1d3491461010157806355f7a735146101315780635aa68ac01461014f5780636f4a2cd01461016d578063715018a614610177575b5f5ffd5b6100eb60048036038101906100e69190610ca1565b61025f565b6040516100f89190610ce6565b60405180910390f35b61011b60048036038101906101169190610d32565b61027c565b6040516101289190610d6c565b60405180910390f35b6101396102b7565b6040516101469190610d94565b60405180910390f35b6101576102bd565b6040516101649190610e64565b60405180910390f35b610175610348565b005b61017f610688565b005b61018961069b565b6040516101969190610d6c565b60405180910390f35b6101a76106c2565b6040516101b49190610d94565b60405180910390f35b6101c56106c8565b6040516101d29190610edf565b60405180910390f35b6101f560048036038101906101f09190610ca1565b6106ed565b005b610211600480360381019061020c9190610ca1565b6108f0565b60405161021e9190610d94565b60405180910390f35b610241600480360381019061023c9190610d32565b610905565b005b61025d60048036038101906102589190610ca1565b610a37565b005b6005602052805f5260405f205f915054906101000a900460ff1681565b6006818154811061028b575f80fd5b905f5260205f20015f915054906101000a900473ffffffffffffffffffffffffffffffffffffffff1681565b60035481565b6060600680548060200260200160405190810160405280929190818152602001828054801561033e57602002820191905f5260205f20905b815f9054906101000a900473ffffffffffffffffffffffffffffffffffffffff1673ffffffffffffffffffffffffffffffffffffffff16815260200190600101908083116102f5575b5050505050905090565b610350610abb565b62278d006002546103619190610f25565b4210156103a3576040517f08c379a000000000000000000000000000000000000000000000000000000000815260040161039a90610fb2565b60405180910390fd5b5f600354116103e7576040517f08c379a00000000000000000000000000000000000000000000000000000000081526004016103de9061101a565b60405180910390fd5b5f60015f9054906101000a900473ffffffffffffffffffffffffffffffffffffffff1673ffffffffffffffffffffffffffffffffffffffff166370a08231306040518263ffffffff1660e01b81526004016104429190610d6c565b602060405180830381865afa15801561045d573d5f5f3e3d5ffd5b505050506040513d601f19601f82011682018060405250810190610481919061104c565b90505f5f90505b600680549050811015610632575f600682815481106104aa576104a9611077565b5b905f5260205f20015f9054906101000a900473ffffffffffffffffffffffffffffffffffffffff1690505f60045f8373ffffffffffffffffffffffffffffffffffffffff1673ffffffffffffffffffffffffffffffffffffffff1681526020019081526020015f205490505f8111156105e1575f600354858361052d91906110a4565b6105379190611112565b90505f8111156105df5760015f9054906101000a900473ffffffffffffffffffffffffffffffffffffffff1673ffffffffffffffffffffffffffffffffffffffff1663a9059cbb84836040518363ffffffff1660e01b815260040161059d929190611142565b6020604051808303815f875af11580156105b9573d5f5f3e3d5ffd5b505050506040513d601f19601f820116820180604052508101906105dd9190611193565b505b505b5f60045f8473ffffffffffffffffffffffffffffffffffffffff1673ffffffffffffffffffffffffffffffffffffffff1681526020019081526020015f208190555050508080600101915050610488565b505f6003819055504260028190555060065f61064e9190610c0a565b7f6d1c76d614228b523baa4dcd9539e2c713b54ff4ab3ff2d1627e7f6cd32be4428160405161067d9190610d94565b60405180910390a150565b610690610abb565b6106995f610b42565b565b5f5f5f9054906101000a900473ffffffffffffffffffffffffffffffffffffffff16905090565b60025481565b60015f9054906101000a900473ffffffffffffffffffffffffffffffffffffffff1681565b6106f5610abb565b60055f8273ffffffffffffffffffffffffffffffffffffffff1673ffffffffffffffffffffffffffffffffffffffff1681526020019081526020015f205f9054906101000a900460ff166107f957600160055f8373ffffffffffffffffffffffffffffffffffffffff1673ffffffffffffffffffffffffffffffffffffffff1681526020019081526020015f205f6101000a81548160ff021916908315150217905550600681908060018154018082558091505060019003905f5260205f20015f9091909190916101000a81548173ffffffffffffffffffffffffffffffffffffffff021916908373ffffffffffffffffffffffffffffffffffffffff1602179055505b60045f8273ffffffffffffffffffffffffffffffffffffffff1673ffffffffffffffffffffffffffffffffffffffff1681526020019081526020015f205f815480929190610846906111be565b919050555060035f81548092919061085d906111be565b91905055508073ffffffffffffffffffffffffffffffffffffffff167f15af81b9f76384da326b60e17b92e7aa06ece24f8085d26111177e96e7ba316a60045f8473ffffffffffffffffffffffffffffffffffffffff1673ffffffffffffffffffffffffffffffffffffffff1681526020019081526020015f20546040516108e59190610d94565b60405180910390a250565b6004602052805f5260405f205f915090505481565b5f8111610947576040517f08c379a000000000000000000000000000000000000000000000000000000000815260040161093e9061124f565b60405180910390fd5b60015f9054906101000a900473ffffffffffffffffffffffffffffffffffffffff1673ffffffffffffffffffffffffffffffffffffffff166323b872dd3330846040518463ffffffff1660e01b81526004016109a59392919061126d565b6020604051808303815f875af11580156109c1573d5f5f3e3d5ffd5b505050506040513d601f19601f820116820180604052508101906109e59190611193565b503373ffffffffffffffffffffffffffffffffffffffff167f32173d8e51cec3a6fe484b7a1c3febe760cdf96e03d4cca36a43563a4333e83882604051610a2c9190610d94565b60405180910390a250565b610a3f610abb565b5f73ffffffffffffffffffffffffffffffffffffffff168173ffffffffffffffffffffffffffffffffffffffff1603610aaf575f6040517f1e4fbdf7000000000000000000000000000000000000000000000000000000008152600401610aa69190610d6c565b60405180910390fd5b610ab881610b42565b50565b610ac3610c03565b73ffffffffffffffffffffffffffffffffffffffff16610ae161069b565b73ffffffffffffffffffffffffffffffffffffffff1614610b4057610b04610c03565b6040517f118cdaa7000000000000000000000000000000000000000000000000000000008152600401610b379190610d6c565b60405180910390fd5b565b5f5f5f9054906101000a900473ffffffffffffffffffffffffffffffffffffffff169050815f5f6101000a81548173ffffffffffffffffffffffffffffffffffffffff021916908373ffffffffffffffffffffffffffffffffffffffff1602179055508173ffffffffffffffffffffffffffffffffffffffff168173ffffffffffffffffffffffffffffffffffffffff167f8be0079c531659141344cd1fd0a4f28419497f9722a3daafe3b4186f6b6457e060405160405180910390a35050565b5f33905090565b5080545f8255905f5260205f2090810190610c259190610c28565b50565b5b80821115610c3f575f815f905550600101610c29565b5090565b5f5ffd5b5f73ffffffffffffffffffffffffffffffffffffffff82169050919050565b5f610c7082610c47565b9050919050565b610c8081610c66565b8114610c8a575f5ffd5b50565b5f81359050610c9b81610c77565b92915050565b5f60208284031215610cb657610cb5610c43565b5b5f610cc384828501610c8d565b91505092915050565b5f8115159050919050565b610ce081610ccc565b82525050565b5f602082019050610cf95f830184610cd7565b92915050565b5f819050919050565b610d1181610cff565b8114610d1b575f5ffd5b50565b5f81359050610d2c81610d08565b92915050565b5f60208284031215610d4757610d46610c43565b5b5f610d5484828501610d1e565b91505092915050565b610d6681610c66565b82525050565b5f602082019050610d7f5f830184610d5d565b92915050565b610d8e81610cff565b82525050565b5f602082019050610da75f830184610d85565b92915050565b5f81519050919050565b5f82825260208201905092915050565b5f819050602082019050919050565b610ddf81610c66565b82525050565b5f610df08383610dd6565b60208301905092915050565b5f602082019050919050565b5f610e1282610dad565b610e1c8185610db7565b9350610e2783610dc7565b805f5b83811015610e57578151610e3e8882610de5565b9750610e4983610dfc565b925050600181019050610e2a565b5085935050505092915050565b5f6020820190508181035f830152610e7c8184610e08565b905092915050565b5f819050919050565b5f610ea7610ea2610e9d84610c47565b610e84565b610c47565b9050919050565b5f610eb882610e8d565b9050919050565b5f610ec982610eae565b9050919050565b610ed981610ebf565b82525050565b5f602082019050610ef25f830184610ed0565b92915050565b7f4e487b71000000000000000000000000000000000000000000000000000000005f52601160045260245ffd5b5f610f2f82610cff565b9150610f3a83610cff565b9250828201905080821115610f5257610f51610ef8565b5b92915050565b5f82825260208201905092915050565b7f4465626573206573706572617220616c2066696e206465206d657300000000005f82015250565b5f610f9c601b83610f58565b9150610fa782610f68565b602082019050919050565b5f6020820190508181035f830152610fc981610f90565b9050919050565b7f4e6f2068617920766973697461732072656769737472616461730000000000005f82015250565b5f611004601a83610f58565b915061100f82610fd0565b602082019050919050565b5f6020820190508181035f83015261103181610ff8565b9050919050565b5f8151905061104681610d08565b92915050565b5f6020828403121561106157611060610c43565b5b5f61106e84828501611038565b91505092915050565b7f4e487b71000000000000000000000000000000000000000000000000000000005f52603260045260245ffd5b5f6110ae82610cff565b91506110b983610cff565b92508282026110c781610cff565b915082820484148315176110de576110dd610ef8565b5b5092915050565b7f4e487b71000000000000000000000000000000000000000000000000000000005f52601260045260245ffd5b5f61111c82610cff565b915061112783610cff565b925082611137576111366110e5565b5b828204905092915050565b5f6040820190506111555f830185610d5d565b6111626020830184610d85565b9392505050565b61117281610ccc565b811461117c575f5ffd5b50565b5f8151905061118d81611169565b92915050565b5f602082840312156111a8576111a7610c43565b5b5f6111b58482850161117f565b91505092915050565b5f6111c882610cff565b91507fffffffffffffffffffffffffffffffffffffffffffffffffffffffffffffffff82036111fa576111f9610ef8565b5b600182019050919050565b7f416d6f756e74206d757374206265203e203000000000000000000000000000005f82015250565b5f611239601283610f58565b915061124482611205565b602082019050919050565b5f6020820190508181035f8301526112668161122d565b9050919050565b5f6060820190506112805f830186610d5d565b61128d6020830185610d5d565b61129a6040830184610d85565b94935050505056fea2646970667358221220d4e5a282514fc65893cc2bd20cdae35f85845d6dba649a1a7f52142bc4bc533164736f6c634300081e0033",
					"opcodes": "PUSH1 0x80 PUSH1 0x40 MSTORE CALLVALUE DUP1 ISZERO PUSH2 0xF JUMPI PUSH0 PUSH0 REVERT JUMPDEST POP PUSH1 0x40 MLOAD PUSH2 0x156A CODESIZE SUB DUP1 PUSH2 0x156A DUP4 CODECOPY DUP2 DUP2 ADD PUSH1 0x40 MSTORE DUP2 ADD SWAP1 PUSH2 0x31 SWAP2 SWAP1 PUSH2 0x21F JUMP JUMPDEST DUP1 PUSH0 PUSH20 0xFFFFFFFFFFFFFFFFFFFFFFFFFFFFFFFFFFFFFFFF AND DUP2 PUSH20 0xFFFFFFFFFFFFFFFFFFFFFFFFFFFFFFFFFFFFFFFF AND SUB PUSH2 0xA2 JUMPI PUSH0 PUSH1 0x40 MLOAD PUSH32 0x1E4FBDF700000000000000000000000000000000000000000000000000000000 DUP2 MSTORE PUSH1 0x4 ADD PUSH2 0x99 SWAP2 SWAP1 PUSH2 0x26C JUMP JUMPDEST PUSH1 0x40 MLOAD DUP1 SWAP2 SUB SWAP1 REVERT JUMPDEST PUSH2 0xB1 DUP2 PUSH2 0x100 PUSH1 0x20 SHL PUSH1 0x20 SHR JUMP JUMPDEST POP DUP2 PUSH1 0x1 PUSH0 PUSH2 0x100 EXP DUP2 SLOAD DUP2 PUSH20 0xFFFFFFFFFFFFFFFFFFFFFFFFFFFFFFFFFFFFFFFF MUL NOT AND SWAP1 DUP4 PUSH20 0xFFFFFFFFFFFFFFFFFFFFFFFFFFFFFFFFFFFFFFFF AND MUL OR SWAP1 SSTORE POP TIMESTAMP PUSH1 0x2 DUP2 SWAP1 SSTORE POP POP POP PUSH2 0x285 JUMP JUMPDEST PUSH0 PUSH0 PUSH0 SWAP1 SLOAD SWAP1 PUSH2 0x100 EXP SWAP1 DIV PUSH20 0xFFFFFFFFFFFFFFFFFFFFFFFFFFFFFFFFFFFFFFFF AND SWAP1 POP DUP2 PUSH0 PUSH0 PUSH2 0x100 EXP DUP2 SLOAD DUP2 PUSH20 0xFFFFFFFFFFFFFFFFFFFFFFFFFFFFFFFFFFFFFFFF MUL NOT AND SWAP1 DUP4 PUSH20 0xFFFFFFFFFFFFFFFFFFFFFFFFFFFFFFFFFFFFFFFF AND MUL OR SWAP1 SSTORE POP DUP2 PUSH20 0xFFFFFFFFFFFFFFFFFFFFFFFFFFFFFFFFFFFFFFFF AND DUP2 PUSH20 0xFFFFFFFFFFFFFFFFFFFFFFFFFFFFFFFFFFFFFFFF AND PUSH32 0x8BE0079C531659141344CD1FD0A4F28419497F9722A3DAAFE3B4186F6B6457E0 PUSH1 0x40 MLOAD PUSH1 0x40 MLOAD DUP1 SWAP2 SUB SWAP1 LOG3 POP POP JUMP JUMPDEST PUSH0 PUSH0 REVERT JUMPDEST PUSH0 PUSH20 0xFFFFFFFFFFFFFFFFFFFFFFFFFFFFFFFFFFFFFFFF DUP3 AND SWAP1 POP SWAP2 SWAP1 POP JUMP JUMPDEST PUSH0 PUSH2 0x1EE DUP3 PUSH2 0x1C5 JUMP JUMPDEST SWAP1 POP SWAP2 SWAP1 POP JUMP JUMPDEST PUSH2 0x1FE DUP2 PUSH2 0x1E4 JUMP JUMPDEST DUP2 EQ PUSH2 0x208 JUMPI PUSH0 PUSH0 REVERT JUMPDEST POP JUMP JUMPDEST PUSH0 DUP2 MLOAD SWAP1 POP PUSH2 0x219 DUP2 PUSH2 0x1F5 JUMP JUMPDEST SWAP3 SWAP2 POP POP JUMP JUMPDEST PUSH0 PUSH0 PUSH1 0x40 DUP4 DUP6 SUB SLT ISZERO PUSH2 0x235 JUMPI PUSH2 0x234 PUSH2 0x1C1 JUMP JUMPDEST JUMPDEST PUSH0 PUSH2 0x242 DUP6 DUP3 DUP7 ADD PUSH2 0x20B JUMP JUMPDEST SWAP3 POP POP PUSH1 0x20 PUSH2 0x253 DUP6 DUP3 DUP7 ADD PUSH2 0x20B JUMP JUMPDEST SWAP2 POP POP SWAP3 POP SWAP3 SWAP1 POP JUMP JUMPDEST PUSH2 0x266 DUP2 PUSH2 0x1E4 JUMP JUMPDEST DUP3 MSTORE POP POP JUMP JUMPDEST PUSH0 PUSH1 0x20 DUP3 ADD SWAP1 POP PUSH2 0x27F PUSH0 DUP4 ADD DUP5 PUSH2 0x25D JUMP JUMPDEST SWAP3 SWAP2 POP POP JUMP JUMPDEST PUSH2 0x12D8 DUP1 PUSH2 0x292 PUSH0 CODECOPY PUSH0 RETURN INVALID PUSH1 0x80 PUSH1 0x40 MSTORE CALLVALUE DUP1 ISZERO PUSH2 0xF JUMPI PUSH0 PUSH0 REVERT JUMPDEST POP PUSH1 0x4 CALLDATASIZE LT PUSH2 0xCD JUMPI PUSH0 CALLDATALOAD PUSH1 0xE0 SHR DUP1 PUSH4 0x8DA5CB5B GT PUSH2 0x8A JUMPI DUP1 PUSH4 0xC91538A9 GT PUSH2 0x64 JUMPI DUP1 PUSH4 0xC91538A9 EQ PUSH2 0x1DB JUMPI DUP1 PUSH4 0xCC2BC153 EQ PUSH2 0x1F7 JUMPI DUP1 PUSH4 0xDA3A5F72 EQ PUSH2 0x227 JUMPI DUP1 PUSH4 0xF2FDE38B EQ PUSH2 0x243 JUMPI PUSH2 0xCD JUMP JUMPDEST DUP1 PUSH4 0x8DA5CB5B EQ PUSH2 0x181 JUMPI DUP1 PUSH4 0xA717639C EQ PUSH2 0x19F JUMPI DUP1 PUSH4 0xB43B0F4F EQ PUSH2 0x1BD JUMPI PUSH2 0xCD JUMP JUMPDEST DUP1 PUSH4 0x1F5BDF5D EQ PUSH2 0xD1 JUMPI DUP1 PUSH4 0x35C1D349 EQ PUSH2 0x101 JUMPI DUP1 PUSH4 0x55F7A735 EQ PUSH2 0x131 JUMPI DUP1 PUSH4 0x5AA68AC0 EQ PUSH2 0x14F JUMPI DUP1 PUSH4 0x6F4A2CD0 EQ PUSH2 0x16D JUMPI DUP1 PUSH4 0x715018A6 EQ PUSH2 0x177 JUMPI JUMPDEST PUSH0 PUSH0 REVERT JUMPDEST PUSH2 0xEB PUSH1 0x4 DUP1 CALLDATASIZE SUB DUP2 ADD SWAP1 PUSH2 0xE6 SWAP2 SWAP1 PUSH2 0xCA1 JUMP JUMPDEST PUSH2 0x25F JUMP JUMPDEST PUSH1 0x40 MLOAD PUSH2 0xF8 SWAP2 SWAP1 PUSH2 0xCE6 JUMP JUMPDEST PUSH1 0x40 MLOAD DUP1 SWAP2 SUB SWAP1 RETURN JUMPDEST PUSH2 0x11B PUSH1 0x4 DUP1 CALLDATASIZE SUB DUP2 ADD SWAP1 PUSH2 0x116 SWAP2 SWAP1 PUSH2 0xD32 JUMP JUMPDEST PUSH2 0x27C JUMP JUMPDEST PUSH1 0x40 MLOAD PUSH2 0x128 SWAP2 SWAP1 PUSH2 0xD6C JUMP JUMPDEST PUSH1 0x40 MLOAD DUP1 SWAP2 SUB SWAP1 RETURN JUMPDEST PUSH2 0x139 PUSH2 0x2B7 JUMP JUMPDEST PUSH1 0x40 MLOAD PUSH2 0x146 SWAP2 SWAP1 PUSH2 0xD94 JUMP JUMPDEST PUSH1 0x40 MLOAD DUP1 SWAP2 SUB SWAP1 RETURN JUMPDEST PUSH2 0x157 PUSH2 0x2BD JUMP JUMPDEST PUSH1 0x40 MLOAD PUSH2 0x164 SWAP2 SWAP1 PUSH2 0xE64 JUMP JUMPDEST PUSH1 0x40 MLOAD DUP1 SWAP2 SUB SWAP1 RETURN JUMPDEST PUSH2 0x175 PUSH2 0x348 JUMP JUMPDEST STOP JUMPDEST PUSH2 0x17F PUSH2 0x688 JUMP JUMPDEST STOP JUMPDEST PUSH2 0x189 PUSH2 0x69B JUMP JUMPDEST PUSH1 0x40 MLOAD PUSH2 0x196 SWAP2 SWAP1 PUSH2 0xD6C JUMP JUMPDEST PUSH1 0x40 MLOAD DUP1 SWAP2 SUB SWAP1 RETURN JUMPDEST PUSH2 0x1A7 PUSH2 0x6C2 JUMP JUMPDEST PUSH1 0x40 MLOAD PUSH2 0x1B4 SWAP2 SWAP1 PUSH2 0xD94 JUMP JUMPDEST PUSH1 0x40 MLOAD DUP1 SWAP2 SUB SWAP1 RETURN JUMPDEST PUSH2 0x1C5 PUSH2 0x6C8 JUMP JUMPDEST PUSH1 0x40 MLOAD PUSH2 0x1D2 SWAP2 SWAP1 PUSH2 0xEDF JUMP JUMPDEST PUSH1 0x40 MLOAD DUP1 SWAP2 SUB SWAP1 RETURN JUMPDEST PUSH2 0x1F5 PUSH1 0x4 DUP1 CALLDATASIZE SUB DUP2 ADD SWAP1 PUSH2 0x1F0 SWAP2 SWAP1 PUSH2 0xCA1 JUMP JUMPDEST PUSH2 0x6ED JUMP JUMPDEST STOP JUMPDEST PUSH2 0x211 PUSH1 0x4 DUP1 CALLDATASIZE SUB DUP2 ADD SWAP1 PUSH2 0x20C SWAP2 SWAP1 PUSH2 0xCA1 JUMP JUMPDEST PUSH2 0x8F0 JUMP JUMPDEST PUSH1 0x40 MLOAD PUSH2 0x21E SWAP2 SWAP1 PUSH2 0xD94 JUMP JUMPDEST PUSH1 0x40 MLOAD DUP1 SWAP2 SUB SWAP1 RETURN JUMPDEST PUSH2 0x241 PUSH1 0x4 DUP1 CALLDATASIZE SUB DUP2 ADD SWAP1 PUSH2 0x23C SWAP2 SWAP1 PUSH2 0xD32 JUMP JUMPDEST PUSH2 0x905 JUMP JUMPDEST STOP JUMPDEST PUSH2 0x25D PUSH1 0x4 DUP1 CALLDATASIZE SUB DUP2 ADD SWAP1 PUSH2 0x258 SWAP2 SWAP1 PUSH2 0xCA1 JUMP JUMPDEST PUSH2 0xA37 JUMP JUMPDEST STOP JUMPDEST PUSH1 0x5 PUSH1 0x20 MSTORE DUP1 PUSH0 MSTORE PUSH1 0x40 PUSH0 KECCAK256 PUSH0 SWAP2 POP SLOAD SWAP1 PUSH2 0x100 EXP SWAP1 DIV PUSH1 0xFF AND DUP2 JUMP JUMPDEST PUSH1 0x6 DUP2 DUP2 SLOAD DUP2 LT PUSH2 0x28B JUMPI PUSH0 DUP1 REVERT JUMPDEST SWAP1 PUSH0 MSTORE PUSH1 0x20 PUSH0 KECCAK256 ADD PUSH0 SWAP2 POP SLOAD SWAP1 PUSH2 0x100 EXP SWAP1 DIV PUSH20 0xFFFFFFFFFFFFFFFFFFFFFFFFFFFFFFFFFFFFFFFF AND DUP2 JUMP JUMPDEST PUSH1 0x3 SLOAD DUP2 JUMP JUMPDEST PUSH1 0x60 PUSH1 0x6 DUP1 SLOAD DUP1 PUSH1 0x20 MUL PUSH1 0x20 ADD PUSH1 0x40 MLOAD SWAP1 DUP2 ADD PUSH1 0x40 MSTORE DUP1 SWAP3 SWAP2 SWAP1 DUP2 DUP2 MSTORE PUSH1 0x20 ADD DUP3 DUP1 SLOAD DUP1 ISZERO PUSH2 0x33E JUMPI PUSH1 0x20 MUL DUP3 ADD SWAP2 SWAP1 PUSH0 MSTORE PUSH1 0x20 PUSH0 KECCAK256 SWAP1 JUMPDEST DUP2 PUSH0 SWAP1 SLOAD SWAP1 PUSH2 0x100 EXP SWAP1 DIV PUSH20 0xFFFFFFFFFFFFFFFFFFFFFFFFFFFFFFFFFFFFFFFF AND PUSH20 0xFFFFFFFFFFFFFFFFFFFFFFFFFFFFFFFFFFFFFFFF AND DUP2 MSTORE PUSH1 0x20 ADD SWAP1 PUSH1 0x1 ADD SWAP1 DUP1 DUP4 GT PUSH2 0x2F5 JUMPI JUMPDEST POP POP POP POP POP SWAP1 POP SWAP1 JUMP JUMPDEST PUSH2 0x350 PUSH2 0xABB JUMP JUMPDEST PUSH3 0x278D00 PUSH1 0x2 SLOAD PUSH2 0x361 SWAP2 SWAP1 PUSH2 0xF25 JUMP JUMPDEST TIMESTAMP LT ISZERO PUSH2 0x3A3 JUMPI PUSH1 0x40 MLOAD PUSH32 0x8C379A000000000000000000000000000000000000000000000000000000000 DUP2 MSTORE PUSH1 0x4 ADD PUSH2 0x39A SWAP1 PUSH2 0xFB2 JUMP JUMPDEST PUSH1 0x40 MLOAD DUP1 SWAP2 SUB SWAP1 REVERT JUMPDEST PUSH0 PUSH1 0x3 SLOAD GT PUSH2 0x3E7 JUMPI PUSH1 0x40 MLOAD PUSH32 0x8C379A000000000000000000000000000000000000000000000000000000000 DUP2 MSTORE PUSH1 0x4 ADD PUSH2 0x3DE SWAP1 PUSH2 0x101A JUMP JUMPDEST PUSH1 0x40 MLOAD DUP1 SWAP2 SUB SWAP1 REVERT JUMPDEST PUSH0 PUSH1 0x1 PUSH0 SWAP1 SLOAD SWAP1 PUSH2 0x100 EXP SWAP1 DIV PUSH20 0xFFFFFFFFFFFFFFFFFFFFFFFFFFFFFFFFFFFFFFFF AND PUSH20 0xFFFFFFFFFFFFFFFFFFFFFFFFFFFFFFFFFFFFFFFF AND PUSH4 0x70A08231 ADDRESS PUSH1 0x40 MLOAD DUP3 PUSH4 0xFFFFFFFF AND PUSH1 0xE0 SHL DUP2 MSTORE PUSH1 0x4 ADD PUSH2 0x442 SWAP2 SWAP1 PUSH2 0xD6C JUMP JUMPDEST PUSH1 0x20 PUSH1 0x40 MLOAD DUP1 DUP4 SUB DUP2 DUP7 GAS STATICCALL ISZERO DUP1 ISZERO PUSH2 0x45D JUMPI RETURNDATASIZE PUSH0 PUSH0 RETURNDATACOPY RETURNDATASIZE PUSH0 REVERT JUMPDEST POP POP POP POP PUSH1 0x40 MLOAD RETURNDATASIZE PUSH1 0x1F NOT PUSH1 0x1F DUP3 ADD AND DUP3 ADD DUP1 PUSH1 0x40 MSTORE POP DUP2 ADD SWAP1 PUSH2 0x481 SWAP2 SWAP1 PUSH2 0x104C JUMP JUMPDEST SWAP1 POP PUSH0 PUSH0 SWAP1 POP JUMPDEST PUSH1 0x6 DUP1 SLOAD SWAP1 POP DUP2 LT ISZERO PUSH2 0x632 JUMPI PUSH0 PUSH1 0x6 DUP3 DUP2 SLOAD DUP2 LT PUSH2 0x4AA JUMPI PUSH2 0x4A9 PUSH2 0x1077 JUMP JUMPDEST JUMPDEST SWAP1 PUSH0 MSTORE PUSH1 0x20 PUSH0 KECCAK256 ADD PUSH0 SWAP1 SLOAD SWAP1 PUSH2 0x100 EXP SWAP1 DIV PUSH20 0xFFFFFFFFFFFFFFFFFFFFFFFFFFFFFFFFFFFFFFFF AND SWAP1 POP PUSH0 PUSH1 0x4 PUSH0 DUP4 PUSH20 0xFFFFFFFFFFFFFFFFFFFFFFFFFFFFFFFFFFFFFFFF AND PUSH20 0xFFFFFFFFFFFFFFFFFFFFFFFFFFFFFFFFFFFFFFFF AND DUP2 MSTORE PUSH1 0x20 ADD SWAP1 DUP2 MSTORE PUSH1 0x20 ADD PUSH0 KECCAK256 SLOAD SWAP1 POP PUSH0 DUP2 GT ISZERO PUSH2 0x5E1 JUMPI PUSH0 PUSH1 0x3 SLOAD DUP6 DUP4 PUSH2 0x52D SWAP2 SWAP1 PUSH2 0x10A4 JUMP JUMPDEST PUSH2 0x537 SWAP2 SWAP1 PUSH2 0x1112 JUMP JUMPDEST SWAP1 POP PUSH0 DUP2 GT ISZERO PUSH2 0x5DF JUMPI PUSH1 0x1 PUSH0 SWAP1 SLOAD SWAP1 PUSH2 0x100 EXP SWAP1 DIV PUSH20 0xFFFFFFFFFFFFFFFFFFFFFFFFFFFFFFFFFFFFFFFF AND PUSH20 0xFFFFFFFFFFFFFFFFFFFFFFFFFFFFFFFFFFFFFFFF AND PUSH4 0xA9059CBB DUP5 DUP4 PUSH1 0x40 MLOAD DUP4 PUSH4 0xFFFFFFFF AND PUSH1 0xE0 SHL DUP2 MSTORE PUSH1 0x4 ADD PUSH2 0x59D SWAP3 SWAP2 SWAP1 PUSH2 0x1142 JUMP JUMPDEST PUSH1 0x20 PUSH1 0x40 MLOAD DUP1 DUP4 SUB DUP2 PUSH0 DUP8 GAS CALL ISZERO DUP1 ISZERO PUSH2 0x5B9 JUMPI RETURNDATASIZE PUSH0 PUSH0 RETURNDATACOPY RETURNDATASIZE PUSH0 REVERT JUMPDEST POP POP POP POP PUSH1 0x40 MLOAD RETURNDATASIZE PUSH1 0x1F NOT PUSH1 0x1F DUP3 ADD AND DUP3 ADD DUP1 PUSH1 0x40 MSTORE POP DUP2 ADD SWAP1 PUSH2 0x5DD SWAP2 SWAP1 PUSH2 0x1193 JUMP JUMPDEST POP JUMPDEST POP JUMPDEST PUSH0 PUSH1 0x4 PUSH0 DUP5 PUSH20 0xFFFFFFFFFFFFFFFFFFFFFFFFFFFFFFFFFFFFFFFF AND PUSH20 0xFFFFFFFFFFFFFFFFFFFFFFFFFFFFFFFFFFFFFFFF AND DUP2 MSTORE PUSH1 0x20 ADD SWAP1 DUP2 MSTORE PUSH1 0x20 ADD PUSH0 KECCAK256 DUP2 SWAP1 SSTORE POP POP POP DUP1 DUP1 PUSH1 0x1 ADD SWAP2 POP POP PUSH2 0x488 JUMP JUMPDEST POP PUSH0 PUSH1 0x3 DUP2 SWAP1 SSTORE POP TIMESTAMP PUSH1 0x2 DUP2 SWAP1 SSTORE POP PUSH1 0x6 PUSH0 PUSH2 0x64E SWAP2 SWAP1 PUSH2 0xC0A JUMP JUMPDEST PUSH32 0x6D1C76D614228B523BAA4DCD9539E2C713B54FF4AB3FF2D1627E7F6CD32BE442 DUP2 PUSH1 0x40 MLOAD PUSH2 0x67D SWAP2 SWAP1 PUSH2 0xD94 JUMP JUMPDEST PUSH1 0x40 MLOAD DUP1 SWAP2 SUB SWAP1 LOG1 POP JUMP JUMPDEST PUSH2 0x690 PUSH2 0xABB JUMP JUMPDEST PUSH2 0x699 PUSH0 PUSH2 0xB42 JUMP JUMPDEST JUMP JUMPDEST PUSH0 PUSH0 PUSH0 SWAP1 SLOAD SWAP1 PUSH2 0x100 EXP SWAP1 DIV PUSH20 0xFFFFFFFFFFFFFFFFFFFFFFFFFFFFFFFFFFFFFFFF AND SWAP1 POP SWAP1 JUMP JUMPDEST PUSH1 0x2 SLOAD DUP2 JUMP JUMPDEST PUSH1 0x1 PUSH0 SWAP1 SLOAD SWAP1 PUSH2 0x100 EXP SWAP1 DIV PUSH20 0xFFFFFFFFFFFFFFFFFFFFFFFFFFFFFFFFFFFFFFFF AND DUP2 JUMP JUMPDEST PUSH2 0x6F5 PUSH2 0xABB JUMP JUMPDEST PUSH1 0x5 PUSH0 DUP3 PUSH20 0xFFFFFFFFFFFFFFFFFFFFFFFFFFFFFFFFFFFFFFFF AND PUSH20 0xFFFFFFFFFFFFFFFFFFFFFFFFFFFFFFFFFFFFFFFF AND DUP2 MSTORE PUSH1 0x20 ADD SWAP1 DUP2 MSTORE PUSH1 0x20 ADD PUSH0 KECCAK256 PUSH0 SWAP1 SLOAD SWAP1 PUSH2 0x100 EXP SWAP1 DIV PUSH1 0xFF AND PUSH2 0x7F9 JUMPI PUSH1 0x1 PUSH1 0x5 PUSH0 DUP4 PUSH20 0xFFFFFFFFFFFFFFFFFFFFFFFFFFFFFFFFFFFFFFFF AND PUSH20 0xFFFFFFFFFFFFFFFFFFFFFFFFFFFFFFFFFFFFFFFF AND DUP2 MSTORE PUSH1 0x20 ADD SWAP1 DUP2 MSTORE PUSH1 0x20 ADD PUSH0 KECCAK256 PUSH0 PUSH2 0x100 EXP DUP2 SLOAD DUP2 PUSH1 0xFF MUL NOT AND SWAP1 DUP4 ISZERO ISZERO MUL OR SWAP1 SSTORE POP PUSH1 0x6 DUP2 SWAP1 DUP1 PUSH1 0x1 DUP2 SLOAD ADD DUP1 DUP3 SSTORE DUP1 SWAP2 POP POP PUSH1 0x1 SWAP1 SUB SWAP1 PUSH0 MSTORE PUSH1 0x20 PUSH0 KECCAK256 ADD PUSH0 SWAP1 SWAP2 SWAP1 SWAP2 SWAP1 SWAP2 PUSH2 0x100 EXP DUP2 SLOAD DUP2 PUSH20 0xFFFFFFFFFFFFFFFFFFFFFFFFFFFFFFFFFFFFFFFF MUL NOT AND SWAP1 DUP4 PUSH20 0xFFFFFFFFFFFFFFFFFFFFFFFFFFFFFFFFFFFFFFFF AND MUL OR SWAP1 SSTORE POP JUMPDEST PUSH1 0x4 PUSH0 DUP3 PUSH20 0xFFFFFFFFFFFFFFFFFFFFFFFFFFFFFFFFFFFFFFFF AND PUSH20 0xFFFFFFFFFFFFFFFFFFFFFFFFFFFFFFFFFFFFFFFF AND DUP2 MSTORE PUSH1 0x20 ADD SWAP1 DUP2 MSTORE PUSH1 0x20 ADD PUSH0 KECCAK256 PUSH0 DUP2 SLOAD DUP1 SWAP3 SWAP2 SWAP1 PUSH2 0x846 SWAP1 PUSH2 0x11BE JUMP JUMPDEST SWAP2 SWAP1 POP SSTORE POP PUSH1 0x3 PUSH0 DUP2 SLOAD DUP1 SWAP3 SWAP2 SWAP1 PUSH2 0x85D SWAP1 PUSH2 0x11BE JUMP JUMPDEST SWAP2 SWAP1 POP SSTORE POP DUP1 PUSH20 0xFFFFFFFFFFFFFFFFFFFFFFFFFFFFFFFFFFFFFFFF AND PUSH32 0x15AF81B9F76384DA326B60E17B92E7AA06ECE24F8085D26111177E96E7BA316A PUSH1 0x4 PUSH0 DUP5 PUSH20 0xFFFFFFFFFFFFFFFFFFFFFFFFFFFFFFFFFFFFFFFF AND PUSH20 0xFFFFFFFFFFFFFFFFFFFFFFFFFFFFFFFFFFFFFFFF AND DUP2 MSTORE PUSH1 0x20 ADD SWAP1 DUP2 MSTORE PUSH1 0x20 ADD PUSH0 KECCAK256 SLOAD PUSH1 0x40 MLOAD PUSH2 0x8E5 SWAP2 SWAP1 PUSH2 0xD94 JUMP JUMPDEST PUSH1 0x40 MLOAD DUP1 SWAP2 SUB SWAP1 LOG2 POP JUMP JUMPDEST PUSH1 0x4 PUSH1 0x20 MSTORE DUP1 PUSH0 MSTORE PUSH1 0x40 PUSH0 KECCAK256 PUSH0 SWAP2 POP SWAP1 POP SLOAD DUP2 JUMP JUMPDEST PUSH0 DUP2 GT PUSH2 0x947 JUMPI PUSH1 0x40 MLOAD PUSH32 0x8C379A000000000000000000000000000000000000000000000000000000000 DUP2 MSTORE PUSH1 0x4 ADD PUSH2 0x93E SWAP1 PUSH2 0x124F JUMP JUMPDEST PUSH1 0x40 MLOAD DUP1 SWAP2 SUB SWAP1 REVERT JUMPDEST PUSH1 0x1 PUSH0 SWAP1 SLOAD SWAP1 PUSH2 0x100 EXP SWAP1 DIV PUSH20 0xFFFFFFFFFFFFFFFFFFFFFFFFFFFFFFFFFFFFFFFF AND PUSH20 0xFFFFFFFFFFFFFFFFFFFFFFFFFFFFFFFFFFFFFFFF AND PUSH4 0x23B872DD CALLER ADDRESS DUP5 PUSH1 0x40 MLOAD DUP5 PUSH4 0xFFFFFFFF AND PUSH1 0xE0 SHL DUP2 MSTORE PUSH1 0x4 ADD PUSH2 0x9A5 SWAP4 SWAP3 SWAP2 SWAP1 PUSH2 0x126D JUMP JUMPDEST PUSH1 0x20 PUSH1 0x40 MLOAD DUP1 DUP4 SUB DUP2 PUSH0 DUP8 GAS CALL ISZERO DUP1 ISZERO PUSH2 0x9C1 JUMPI RETURNDATASIZE PUSH0 PUSH0 RETURNDATACOPY RETURNDATASIZE PUSH0 REVERT JUMPDEST POP POP POP POP PUSH1 0x40 MLOAD RETURNDATASIZE PUSH1 0x1F NOT PUSH1 0x1F DUP3 ADD AND DUP3 ADD DUP1 PUSH1 0x40 MSTORE POP DUP2 ADD SWAP1 PUSH2 0x9E5 SWAP2 SWAP1 PUSH2 0x1193 JUMP JUMPDEST POP CALLER PUSH20 0xFFFFFFFFFFFFFFFFFFFFFFFFFFFFFFFFFFFFFFFF AND PUSH32 0x32173D8E51CEC3A6FE484B7A1C3FEBE760CDF96E03D4CCA36A43563A4333E838 DUP3 PUSH1 0x40 MLOAD PUSH2 0xA2C SWAP2 SWAP1 PUSH2 0xD94 JUMP JUMPDEST PUSH1 0x40 MLOAD DUP1 SWAP2 SUB SWAP1 LOG2 POP JUMP JUMPDEST PUSH2 0xA3F PUSH2 0xABB JUMP JUMPDEST PUSH0 PUSH20 0xFFFFFFFFFFFFFFFFFFFFFFFFFFFFFFFFFFFFFFFF AND DUP2 PUSH20 0xFFFFFFFFFFFFFFFFFFFFFFFFFFFFFFFFFFFFFFFF AND SUB PUSH2 0xAAF JUMPI PUSH0 PUSH1 0x40 MLOAD PUSH32 0x1E4FBDF700000000000000000000000000000000000000000000000000000000 DUP2 MSTORE PUSH1 0x4 ADD PUSH2 0xAA6 SWAP2 SWAP1 PUSH2 0xD6C JUMP JUMPDEST PUSH1 0x40 MLOAD DUP1 SWAP2 SUB SWAP1 REVERT JUMPDEST PUSH2 0xAB8 DUP2 PUSH2 0xB42 JUMP JUMPDEST POP JUMP JUMPDEST PUSH2 0xAC3 PUSH2 0xC03 JUMP JUMPDEST PUSH20 0xFFFFFFFFFFFFFFFFFFFFFFFFFFFFFFFFFFFFFFFF AND PUSH2 0xAE1 PUSH2 0x69B JUMP JUMPDEST PUSH20 0xFFFFFFFFFFFFFFFFFFFFFFFFFFFFFFFFFFFFFFFF AND EQ PUSH2 0xB40 JUMPI PUSH2 0xB04 PUSH2 0xC03 JUMP JUMPDEST PUSH1 0x40 MLOAD PUSH32 0x118CDAA700000000000000000000000000000000000000000000000000000000 DUP2 MSTORE PUSH1 0x4 ADD PUSH2 0xB37 SWAP2 SWAP1 PUSH2 0xD6C JUMP JUMPDEST PUSH1 0x40 MLOAD DUP1 SWAP2 SUB SWAP1 REVERT JUMPDEST JUMP JUMPDEST PUSH0 PUSH0 PUSH0 SWAP1 SLOAD SWAP1 PUSH2 0x100 EXP SWAP1 DIV PUSH20 0xFFFFFFFFFFFFFFFFFFFFFFFFFFFFFFFFFFFFFFFF AND SWAP1 POP DUP2 PUSH0 PUSH0 PUSH2 0x100 EXP DUP2 SLOAD DUP2 PUSH20 0xFFFFFFFFFFFFFFFFFFFFFFFFFFFFFFFFFFFFFFFF MUL NOT AND SWAP1 DUP4 PUSH20 0xFFFFFFFFFFFFFFFFFFFFFFFFFFFFFFFFFFFFFFFF AND MUL OR SWAP1 SSTORE POP DUP2 PUSH20 0xFFFFFFFFFFFFFFFFFFFFFFFFFFFFFFFFFFFFFFFF AND DUP2 PUSH20 0xFFFFFFFFFFFFFFFFFFFFFFFFFFFFFFFFFFFFFFFF AND PUSH32 0x8BE0079C531659141344CD1FD0A4F28419497F9722A3DAAFE3B4186F6B6457E0 PUSH1 0x40 MLOAD PUSH1 0x40 MLOAD DUP1 SWAP2 SUB SWAP1 LOG3 POP POP JUMP JUMPDEST PUSH0 CALLER SWAP1 POP SWAP1 JUMP JUMPDEST POP DUP1 SLOAD PUSH0 DUP3 SSTORE SWAP1 PUSH0 MSTORE PUSH1 0x20 PUSH0 KECCAK256 SWAP1 DUP2 ADD SWAP1 PUSH2 0xC25 SWAP2 SWAP1 PUSH2 0xC28 JUMP JUMPDEST POP JUMP JUMPDEST JUMPDEST DUP1 DUP3 GT ISZERO PUSH2 0xC3F JUMPI PUSH0 DUP2 PUSH0 SWAP1 SSTORE POP PUSH1 0x1 ADD PUSH2 0xC29 JUMP JUMPDEST POP SWAP1 JUMP JUMPDEST PUSH0 PUSH0 REVERT JUMPDEST PUSH0 PUSH20 0xFFFFFFFFFFFFFFFFFFFFFFFFFFFFFFFFFFFFFFFF DUP3 AND SWAP1 POP SWAP2 SWAP1 POP JUMP JUMPDEST PUSH0 PUSH2 0xC70 DUP3 PUSH2 0xC47 JUMP JUMPDEST SWAP1 POP SWAP2 SWAP1 POP JUMP JUMPDEST PUSH2 0xC80 DUP2 PUSH2 0xC66 JUMP JUMPDEST DUP2 EQ PUSH2 0xC8A JUMPI PUSH0 PUSH0 REVERT JUMPDEST POP JUMP JUMPDEST PUSH0 DUP2 CALLDATALOAD SWAP1 POP PUSH2 0xC9B DUP2 PUSH2 0xC77 JUMP JUMPDEST SWAP3 SWAP2 POP POP JUMP JUMPDEST PUSH0 PUSH1 0x20 DUP3 DUP5 SUB SLT ISZERO PUSH2 0xCB6 JUMPI PUSH2 0xCB5 PUSH2 0xC43 JUMP JUMPDEST JUMPDEST PUSH0 PUSH2 0xCC3 DUP5 DUP3 DUP6 ADD PUSH2 0xC8D JUMP JUMPDEST SWAP2 POP POP SWAP3 SWAP2 POP POP JUMP JUMPDEST PUSH0 DUP2 ISZERO ISZERO SWAP1 POP SWAP2 SWAP1 POP JUMP JUMPDEST PUSH2 0xCE0 DUP2 PUSH2 0xCCC JUMP JUMPDEST DUP3 MSTORE POP POP JUMP JUMPDEST PUSH0 PUSH1 0x20 DUP3 ADD SWAP1 POP PUSH2 0xCF9 PUSH0 DUP4 ADD DUP5 PUSH2 0xCD7 JUMP JUMPDEST SWAP3 SWAP2 POP POP JUMP JUMPDEST PUSH0 DUP2 SWAP1 POP SWAP2 SWAP1 POP JUMP JUMPDEST PUSH2 0xD11 DUP2 PUSH2 0xCFF JUMP JUMPDEST DUP2 EQ PUSH2 0xD1B JUMPI PUSH0 PUSH0 REVERT JUMPDEST POP JUMP JUMPDEST PUSH0 DUP2 CALLDATALOAD SWAP1 POP PUSH2 0xD2C DUP2 PUSH2 0xD08 JUMP JUMPDEST SWAP3 SWAP2 POP POP JUMP JUMPDEST PUSH0 PUSH1 0x20 DUP3 DUP5 SUB SLT ISZERO PUSH2 0xD47 JUMPI PUSH2 0xD46 PUSH2 0xC43 JUMP JUMPDEST JUMPDEST PUSH0 PUSH2 0xD54 DUP5 DUP3 DUP6 ADD PUSH2 0xD1E JUMP JUMPDEST SWAP2 POP POP SWAP3 SWAP2 POP POP JUMP JUMPDEST PUSH2 0xD66 DUP2 PUSH2 0xC66 JUMP JUMPDEST DUP3 MSTORE POP POP JUMP JUMPDEST PUSH0 PUSH1 0x20 DUP3 ADD SWAP1 POP PUSH2 0xD7F PUSH0 DUP4 ADD DUP5 PUSH2 0xD5D JUMP JUMPDEST SWAP3 SWAP2 POP POP JUMP JUMPDEST PUSH2 0xD8E DUP2 PUSH2 0xCFF JUMP JUMPDEST DUP3 MSTORE POP POP JUMP JUMPDEST PUSH0 PUSH1 0x20 DUP3 ADD SWAP1 POP PUSH2 0xDA7 PUSH0 DUP4 ADD DUP5 PUSH2 0xD85 JUMP JUMPDEST SWAP3 SWAP2 POP POP JUMP JUMPDEST PUSH0 DUP2 MLOAD SWAP1 POP SWAP2 SWAP1 POP JUMP JUMPDEST PUSH0 DUP3 DUP3 MSTORE PUSH1 0x20 DUP3 ADD SWAP1 POP SWAP3 SWAP2 POP POP JUMP JUMPDEST PUSH0 DUP2 SWAP1 POP PUSH1 0x20 DUP3 ADD SWAP1 POP SWAP2 SWAP1 POP JUMP JUMPDEST PUSH2 0xDDF DUP2 PUSH2 0xC66 JUMP JUMPDEST DUP3 MSTORE POP POP JUMP JUMPDEST PUSH0 PUSH2 0xDF0 DUP4 DUP4 PUSH2 0xDD6 JUMP JUMPDEST PUSH1 0x20 DUP4 ADD SWAP1 POP SWAP3 SWAP2 POP POP JUMP JUMPDEST PUSH0 PUSH1 0x20 DUP3 ADD SWAP1 POP SWAP2 SWAP1 POP JUMP JUMPDEST PUSH0 PUSH2 0xE12 DUP3 PUSH2 0xDAD JUMP JUMPDEST PUSH2 0xE1C DUP2 DUP6 PUSH2 0xDB7 JUMP JUMPDEST SWAP4 POP PUSH2 0xE27 DUP4 PUSH2 0xDC7 JUMP JUMPDEST DUP1 PUSH0 JUMPDEST DUP4 DUP2 LT ISZERO PUSH2 0xE57 JUMPI DUP2 MLOAD PUSH2 0xE3E DUP9 DUP3 PUSH2 0xDE5 JUMP JUMPDEST SWAP8 POP PUSH2 0xE49 DUP4 PUSH2 0xDFC JUMP JUMPDEST SWAP3 POP POP PUSH1 0x1 DUP2 ADD SWAP1 POP PUSH2 0xE2A JUMP JUMPDEST POP DUP6 SWAP4 POP POP POP POP SWAP3 SWAP2 POP POP JUMP JUMPDEST PUSH0 PUSH1 0x20 DUP3 ADD SWAP1 POP DUP2 DUP2 SUB PUSH0 DUP4 ADD MSTORE PUSH2 0xE7C DUP2 DUP5 PUSH2 0xE08 JUMP JUMPDEST SWAP1 POP SWAP3 SWAP2 POP POP JUMP JUMPDEST PUSH0 DUP2 SWAP1 POP SWAP2 SWAP1 POP JUMP JUMPDEST PUSH0 PUSH2 0xEA7 PUSH2 0xEA2 PUSH2 0xE9D DUP5 PUSH2 0xC47 JUMP JUMPDEST PUSH2 0xE84 JUMP JUMPDEST PUSH2 0xC47 JUMP JUMPDEST SWAP1 POP SWAP2 SWAP1 POP JUMP JUMPDEST PUSH0 PUSH2 0xEB8 DUP3 PUSH2 0xE8D JUMP JUMPDEST SWAP1 POP SWAP2 SWAP1 POP JUMP JUMPDEST PUSH0 PUSH2 0xEC9 DUP3 PUSH2 0xEAE JUMP JUMPDEST SWAP1 POP SWAP2 SWAP1 POP JUMP JUMPDEST PUSH2 0xED9 DUP2 PUSH2 0xEBF JUMP JUMPDEST DUP3 MSTORE POP POP JUMP JUMPDEST PUSH0 PUSH1 0x20 DUP3 ADD SWAP1 POP PUSH2 0xEF2 PUSH0 DUP4 ADD DUP5 PUSH2 0xED0 JUMP JUMPDEST SWAP3 SWAP2 POP POP JUMP JUMPDEST PUSH32 0x4E487B7100000000000000000000000000000000000000000000000000000000 PUSH0 MSTORE PUSH1 0x11 PUSH1 0x4 MSTORE PUSH1 0x24 PUSH0 REVERT JUMPDEST PUSH0 PUSH2 0xF2F DUP3 PUSH2 0xCFF JUMP JUMPDEST SWAP2 POP PUSH2 0xF3A DUP4 PUSH2 0xCFF JUMP JUMPDEST SWAP3 POP DUP3 DUP3 ADD SWAP1 POP DUP1 DUP3 GT ISZERO PUSH2 0xF52 JUMPI PUSH2 0xF51 PUSH2 0xEF8 JUMP JUMPDEST JUMPDEST SWAP3 SWAP2 POP POP JUMP JUMPDEST PUSH0 DUP3 DUP3 MSTORE PUSH1 0x20 DUP3 ADD SWAP1 POP SWAP3 SWAP2 POP POP JUMP JUMPDEST PUSH32 0x4465626573206573706572617220616C2066696E206465206D65730000000000 PUSH0 DUP3 ADD MSTORE POP JUMP JUMPDEST PUSH0 PUSH2 0xF9C PUSH1 0x1B DUP4 PUSH2 0xF58 JUMP JUMPDEST SWAP2 POP PUSH2 0xFA7 DUP3 PUSH2 0xF68 JUMP JUMPDEST PUSH1 0x20 DUP3 ADD SWAP1 POP SWAP2 SWAP1 POP JUMP JUMPDEST PUSH0 PUSH1 0x20 DUP3 ADD SWAP1 POP DUP2 DUP2 SUB PUSH0 DUP4 ADD MSTORE PUSH2 0xFC9 DUP2 PUSH2 0xF90 JUMP JUMPDEST SWAP1 POP SWAP2 SWAP1 POP JUMP JUMPDEST PUSH32 0x4E6F206861792076697369746173207265676973747261646173000000000000 PUSH0 DUP3 ADD MSTORE POP JUMP JUMPDEST PUSH0 PUSH2 0x1004 PUSH1 0x1A DUP4 PUSH2 0xF58 JUMP JUMPDEST SWAP2 POP PUSH2 0x100F DUP3 PUSH2 0xFD0 JUMP JUMPDEST PUSH1 0x20 DUP3 ADD SWAP1 POP SWAP2 SWAP1 POP JUMP JUMPDEST PUSH0 PUSH1 0x20 DUP3 ADD SWAP1 POP DUP2 DUP2 SUB PUSH0 DUP4 ADD MSTORE PUSH2 0x1031 DUP2 PUSH2 0xFF8 JUMP JUMPDEST SWAP1 POP SWAP2 SWAP1 POP JUMP JUMPDEST PUSH0 DUP2 MLOAD SWAP1 POP PUSH2 0x1046 DUP2 PUSH2 0xD08 JUMP JUMPDEST SWAP3 SWAP2 POP POP JUMP JUMPDEST PUSH0 PUSH1 0x20 DUP3 DUP5 SUB SLT ISZERO PUSH2 0x1061 JUMPI PUSH2 0x1060 PUSH2 0xC43 JUMP JUMPDEST JUMPDEST PUSH0 PUSH2 0x106E DUP5 DUP3 DUP6 ADD PUSH2 0x1038 JUMP JUMPDEST SWAP2 POP POP SWAP3 SWAP2 POP POP JUMP JUMPDEST PUSH32 0x4E487B7100000000000000000000000000000000000000000000000000000000 PUSH0 MSTORE PUSH1 0x32 PUSH1 0x4 MSTORE PUSH1 0x24 PUSH0 REVERT JUMPDEST PUSH0 PUSH2 0x10AE DUP3 PUSH2 0xCFF JUMP JUMPDEST SWAP2 POP PUSH2 0x10B9 DUP4 PUSH2 0xCFF JUMP JUMPDEST SWAP3 POP DUP3 DUP3 MUL PUSH2 0x10C7 DUP2 PUSH2 0xCFF JUMP JUMPDEST SWAP2 POP DUP3 DUP3 DIV DUP5 EQ DUP4 ISZERO OR PUSH2 0x10DE JUMPI PUSH2 0x10DD PUSH2 0xEF8 JUMP JUMPDEST JUMPDEST POP SWAP3 SWAP2 POP POP JUMP JUMPDEST PUSH32 0x4E487B7100000000000000000000000000000000000000000000000000000000 PUSH0 MSTORE PUSH1 0x12 PUSH1 0x4 MSTORE PUSH1 0x24 PUSH0 REVERT JUMPDEST PUSH0 PUSH2 0x111C DUP3 PUSH2 0xCFF JUMP JUMPDEST SWAP2 POP PUSH2 0x1127 DUP4 PUSH2 0xCFF JUMP JUMPDEST SWAP3 POP DUP3 PUSH2 0x1137 JUMPI PUSH2 0x1136 PUSH2 0x10E5 JUMP JUMPDEST JUMPDEST DUP3 DUP3 DIV SWAP1 POP SWAP3 SWAP2 POP POP JUMP JUMPDEST PUSH0 PUSH1 0x40 DUP3 ADD SWAP1 POP PUSH2 0x1155 PUSH0 DUP4 ADD DUP6 PUSH2 0xD5D JUMP JUMPDEST PUSH2 0x1162 PUSH1 0x20 DUP4 ADD DUP5 PUSH2 0xD85 JUMP JUMPDEST SWAP4 SWAP3 POP POP POP JUMP JUMPDEST PUSH2 0x1172 DUP2 PUSH2 0xCCC JUMP JUMPDEST DUP2 EQ PUSH2 0x117C JUMPI PUSH0 PUSH0 REVERT JUMPDEST POP JUMP JUMPDEST PUSH0 DUP2 MLOAD SWAP1 POP PUSH2 0x118D DUP2 PUSH2 0x1169 JUMP JUMPDEST SWAP3 SWAP2 POP POP JUMP JUMPDEST PUSH0 PUSH1 0x20 DUP3 DUP5 SUB SLT ISZERO PUSH2 0x11A8 JUMPI PUSH2 0x11A7 PUSH2 0xC43 JUMP JUMPDEST JUMPDEST PUSH0 PUSH2 0x11B5 DUP5 DUP3 DUP6 ADD PUSH2 0x117F JUMP JUMPDEST SWAP2 POP POP SWAP3 SWAP2 POP POP JUMP JUMPDEST PUSH0 PUSH2 0x11C8 DUP3 PUSH2 0xCFF JUMP JUMPDEST SWAP2 POP PUSH32 0xFFFFFFFFFFFFFFFFFFFFFFFFFFFFFFFFFFFFFFFFFFFFFFFFFFFFFFFFFFFFFFFF DUP3 SUB PUSH2 0x11FA JUMPI PUSH2 0x11F9 PUSH2 0xEF8 JUMP JUMPDEST JUMPDEST PUSH1 0x1 DUP3 ADD SWAP1 POP SWAP2 SWAP1 POP JUMP JUMPDEST PUSH32 0x416D6F756E74206D757374206265203E20300000000000000000000000000000 PUSH0 DUP3 ADD MSTORE POP JUMP JUMPDEST PUSH0 PUSH2 0x1239 PUSH1 0x12 DUP4 PUSH2 0xF58 JUMP JUMPDEST SWAP2 POP PUSH2 0x1244 DUP3 PUSH2 0x1205 JUMP JUMPDEST PUSH1 0x20 DUP3 ADD SWAP1 POP SWAP2 SWAP1 POP JUMP JUMPDEST PUSH0 PUSH1 0x20 DUP3 ADD SWAP1 POP DUP2 DUP2 SUB PUSH0 DUP4 ADD MSTORE PUSH2 0x1266 DUP2 PUSH2 0x122D JUMP JUMPDEST SWAP1 POP SWAP2 SWAP1 POP JUMP JUMPDEST PUSH0 PUSH1 0x60 DUP3 ADD SWAP1 POP PUSH2 0x1280 PUSH0 DUP4 ADD DUP7 PUSH2 0xD5D JUMP JUMPDEST PUSH2 0x128D PUSH1 0x20 DUP4 ADD DUP6 PUSH2 0xD5D JUMP JUMPDEST PUSH2 0x129A PUSH1 0x40 DUP4 ADD DUP5 PUSH2 0xD85 JUMP JUMPDEST SWAP5 SWAP4 POP POP POP POP JUMP INVALID LOG2 PUSH5 0x6970667358 0x22 SLT KECCAK256 0xD4 JUMPF 0xA282 MLOAD 0x4F 0xC6 PC SWAP4 0xCC 0x2B 0xD2 0xC 0xDA CALLF 0x5F85 DUP5 TSTORE PUSH14 0xBA649A1A7F52142BC4BC53316473 PUSH16 0x6C634300081E00330000000000000000 "
				},
				"gasEstimates": {
					"creation": {
						"codeDepositCost": "964800",
						"executionCost": "infinite",
						"totalCost": "infinite"
					},
					"external": {
						"distributeRewards()": "infinite",
						"fundPool(uint256)": "infinite",
						"getParticipants()": "infinite",
						"isRegisteredUser(address)": "2834",
						"lastDistribution()": "2470",
						"monthlyVisits(address)": "2846",
						"owner()": "2537",
						"participants(uint256)": "4967",
						"registerVisit(address)": "infinite",
						"renounceOwnership()": "infinite",
						"totalVisits()": "2470",
						"tourismToken()": "infinite",
						"transferOwnership(address)": "infinite"
					}
				},
				"methodIdentifiers": {
					"distributeRewards()": "6f4a2cd0",
					"fundPool(uint256)": "da3a5f72",
					"getParticipants()": "5aa68ac0",
					"isRegisteredUser(address)": "1f5bdf5d",
					"lastDistribution()": "a717639c",
					"monthlyVisits(address)": "cc2bc153",
					"owner()": "8da5cb5b",
					"participants(uint256)": "35c1d349",
					"registerVisit(address)": "c91538a9",
					"renounceOwnership()": "715018a6",
					"totalVisits()": "55f7a735",
					"tourismToken()": "b43b0f4f",
					"transferOwnership(address)": "f2fde38b"
				}
			},
			"storageLayout": {
				"storage": [
					{
						"astId": 8,
						"contract": "hackathon/TourismRewardPool.sol:TourismRewardPool",
						"label": "_owner",
						"offset": 0,
						"slot": "0",
						"type": "t_address"
					},
					{
						"astId": 264,
						"contract": "hackathon/TourismRewardPool.sol:TourismRewardPool",
						"label": "tourismToken",
						"offset": 0,
						"slot": "1",
						"type": "t_contract(IERC20)225"
					},
					{
						"astId": 266,
						"contract": "hackathon/TourismRewardPool.sol:TourismRewardPool",
						"label": "lastDistribution",
						"offset": 0,
						"slot": "2",
						"type": "t_uint256"
					},
					{
						"astId": 268,
						"contract": "hackathon/TourismRewardPool.sol:TourismRewardPool",
						"label": "totalVisits",
						"offset": 0,
						"slot": "3",
						"type": "t_uint256"
					},
					{
						"astId": 272,
						"contract": "hackathon/TourismRewardPool.sol:TourismRewardPool",
						"label": "monthlyVisits",
						"offset": 0,
						"slot": "4",
						"type": "t_mapping(t_address,t_uint256)"
					},
					{
						"astId": 276,
						"contract": "hackathon/TourismRewardPool.sol:TourismRewardPool",
						"label": "isRegisteredUser",
						"offset": 0,
						"slot": "5",
						"type": "t_mapping(t_address,t_bool)"
					},
					{
						"astId": 279,
						"contract": "hackathon/TourismRewardPool.sol:TourismRewardPool",
						"label": "participants",
						"offset": 0,
						"slot": "6",
						"type": "t_array(t_address)dyn_storage"
					}
				],
				"types": {
					"t_address": {
						"encoding": "inplace",
						"label": "address",
						"numberOfBytes": "20"
					},
					"t_array(t_address)dyn_storage": {
						"base": "t_address",
						"encoding": "dynamic_array",
						"label": "address[]",
						"numberOfBytes": "32"
					},
					"t_bool": {
						"encoding": "inplace",
						"label": "bool",
						"numberOfBytes": "1"
					},
					"t_contract(IERC20)225": {
						"encoding": "inplace",
						"label": "contract IERC20",
						"numberOfBytes": "20"
					},
					"t_mapping(t_address,t_bool)": {
						"encoding": "mapping",
						"key": "t_address",
						"label": "mapping(address => bool)",
						"numberOfBytes": "32",
						"value": "t_bool"
					},
					"t_mapping(t_address,t_uint256)": {
						"encoding": "mapping",
						"key": "t_address",
						"label": "mapping(address => uint256)",
						"numberOfBytes": "32",
						"value": "t_uint256"
					},
					"t_uint256": {
						"encoding": "inplace",
						"label": "uint256",
						"numberOfBytes": "32"
					}
				}
			},
			"userdoc": {
				"kind": "user",
				"methods": {},
				"version": 1
			}
		}
	}
}